:10800000E89C0020E9B30000970F0100D5B3000001
:10801000D5B30000D5B30000D5B30000D5B3000040
:1080200000000000000000000000000045B5000056
:10803000D5B3000000000000E5B40000D5B3000097
:10804000A5B60000A5B60000A5B60000A5B60000C4
:10805000A5B60000A5B60000A5B60000A5B60000B4
:10806000A5B60000A5B60000A5B60000A5B60000A4
:10807000A5B60000A5B60000A5B60000A5B6000094
:10808000A5B60000A5B60000A5B60000A5B6000084
:10809000A5B60000A5B60000A5B60000A5B6000074
:1080A000A5B60000A5B60000A5B60000A5B6000064
:1080B000A5B60000A5B60000A5B60000A5B6000054
:1080C000A5B60000A5B60000A5B60000A5B6000044
:1080D000A5B60000A5B60000A5B60000A5B6000034
:1080E000A5B60000A5B60000A5B60000A5B6000024
:1080F000A5B60000A5B60000A5B60000A5B6000014
:10810000A5B60000A5B60000A5B60000A5B6000003
:10811000A5B60000A5B60000A5B60000A5B60000F3
:10812000A5B60000A5B60000A5B60000A5B60000E3
:10813000A5B60000A5B60000A5B60000A5B60000D3
:10814000A5B60000A5B60000A5B60000A5B60000C3
:04815000A5B60000D0
:1081540081F0004102E000BF83F0004330B54FEAF4
:1081640041044FEA430594EA050F08BF90EA020F61
:108174001FBF54EA000C55EA020C7FEA645C7FEAF4
:10818400655C00F0E2804FEA5454D4EB5555B8BF17
:108194006D420CDD2C4480EA020281EA030382EA88
:1081A400000083EA010180EA020281EA0303362D1A
:1081B40088BF30BD11F0004F4FEA01314FF4801CED
:1081C4004CEA113102D0404261EB410113F0004FFF
:1081D4004FEA03334CEA133302D0524263EB4303B6
:1081E40094EA050F00F0A780A4F10104D5F1200E54
:1081F4000DDB02FA0EFC22FA05F2801841F10001AF
:1082040003FA0EF2801843FA05F359410EE0A5F182
:1082140020050EF1200E012A03FA0EFC28BF4CF0B3
:10822400020C43FA05F3C01851EBE37101F0004569
:1082340007D54FF0000EDCF1000C7EEB00006EEB76
:108244000101B1F5801F1BD3B1F5001F0CD3490800
:108254005FEA30004FEA3C0C04F101044FEA445257
:1082640012F5800F80F09A80BCF1004F08BF5FEADE
:10827400500C50F1000041EB045141EA050130BDBE
:108284005FEA4C0C404141EB0101013C28BFB1F5D0
:10829400801FE9D291F0000F04BF01460020B1FA1B
:1082A40081F308BF2033A3F10B03B3F120020CDAEE
:1082B4000C3208DD02F1140CC2F10C0201FA0CF0CC
:1082C40021FA02F10CE002F11402D8BFC2F1200C31
:1082D40001FA02F120FA0CFCDCBF41EA0C019040E7
:1082E400E41AA2BF01EB0451294330BD6FEA040430
:1082F4001F3C1CDA0C340EDC04F11404C4F120021B
:1083040020FA04F001FA02F340EA030021FA04F32C
:1083140045EA030130BDC4F10C04C4F1200220FA83
:1083240002F001FA04F340EA0300294630BD21FAC1
:1083340004F0294630BD94F0000F83F4801306BF87
:1083440081F480110134013D4EE77FEA645C18BF7B
:108354007FEA655C29D094EA050F08BF90EA020F12
:1083640005D054EA000C04BF1946104630BD91EA0A
:10837400030F1EBF0021002030BD5FEA545C05D10D
:108384004000494128BF41F0004130BD14F580044C
:108394003CBF01F5801130BD01F0004545F0FE41C0
:1083A40041F470014FF0000030BD7FEA645C1ABFF5
:1083B400194610467FEA655C1CBF0B46024650EA2C
:1083C400013406BF52EA033591EA030F41F4002158
:1083D40030BD00BF90F0000F04BF0021704730B5DE
:1083E4004FF4806404F132044FF000054FF00001B3
:1083F40050E700BF90F0000F04BF0021704730B574
:108404004FF4806404F1320410F0004548BF404248
:108414004FF000013EE700BF42004FEAE2014FEA9D
:1084240031014FEA02701FBF12F07F4393F07F4F78
:1084340081F06051704732F07F4208BF704793F07B
:108444007F4F04BF41F40021704730B54FF460748E
:1084540001F0004521F000411CE700BF50EA010291
:1084640008BF704730B54FF000050AE050EA01023A
:1084740008BF704730B511F0004502D5404261EBAA
:1084840041014FF4806404F132045FEA915C3FF4EB
:10849400D8AE4FF003025FEADC0C18BF03325FEA88
:1084A400DC0C18BF033202EBDC02C2F1200300FA39
:1084B40003FC20FA02F001FA03FE40EA0E0021FA5E
:1084C40002F11444BDE600BF70B54FF0FF0C4CF44C
:1084D400E06C1CEA11541DBF1CEA135594EA0C0FFE
:1084E40095EA0C0F00F0DEF82C4481EA030621EA39
:1084F4004C5123EA4C5350EA013518BF52EA033574
:1085040041F4801143F4801338D0A0FB02CE4FF025
:108514000005E1FB02E506F00042E0FB03E54FF055
:108524000006E1FB03569CF0000F18BF4EF0010E4D
:10853400A4F1FF04B6F5007F64F5407404D25FEA49
:108544004E0E6D4146EB060642EAC62141EA5551FC
:108554004FEAC52040EA5E504FEACE2EB4F1FD0C3E
:1085640088BFBCF5E06F1ED8BEF1004F08BF5FEABC
:10857400500E50F1000041EB045170BD06F000466E
:1085840046EA010140EA020081EA0301B4EB5C041B
:10859400C2BFD4EB0C0541EA045170BD41F4801113
:1085A4004FF0000E013C00F3AB8014F1360FDEBF38
:1085B400002001F0004170BDC4F10004203C35DA14
:1085C4000C341BDC04F11404C4F1200500FA05F397
:1085D40020FA04F001FA05F240EA020001F0004238
:1085E40021F0004110EBD37021FA04F642EB0601AE
:1085F4005EEA430E08BF20EAD37070BDC4F10C04D8
:10860400C4F1200500FA04F320FA05F001FA04F29B
:1086140040EA020001F0004110EBD37041F1000187
:108624005EEA430E08BF20EAD37070BDC4F1200592
:1086340000FA05F24EEA020E20FA04F301FA05F2FA
:1086440043EA020321FA04F001F0004121FA04F2A2
:1086540020EA020000EBD3705EEA430E08BF20EA72
:10866400D37070BD94F0000F0FD101F000464000AC
:1086740041EB010111F4801F08BF013CF7D041EA2E
:10868400060195F0000F18BF704703F00046520032
:1086940043EB030313F4801F08BF013DF7D043EA03
:1086A4000603704794EA0C0F0CEA135518BF95EAB9
:1086B4000C0F0CD050EA410618BF52EA4306D1D140
:1086C40081EA030101F000414FF0000070BD50EA5F
:1086D400410606BF1046194652EA430619D094EAE9
:1086E4000C0F02D150EA013613D195EA0C0F05D1D3
:1086F40052EA03361CBF104619460AD181EA030127
:1087040001F0004141F0FE4141F470014FF00000DE
:1087140070BD41F0FE4141F4780170BD70B54FF079
:10872400FF0C4CF4E06C1CEA11541DBF1CEA1355F9
:1087340094EA0C0F95EA0C0F00F0A7F8A4EB0504DB
:1087440081EA030E52EA03354FEA013100F08880D2
:108754004FEA03334FF0805545EA131343EA12639B
:108764004FEA022245EA111545EA10654FEA002650
:108774000EF000419D4208BF964244F1FD0404F509
:10878400407402D25B084FEA3202B61A65EB030565
:108794005B084FEA32024FF480104FF4002CB6EB22
:1087A400020E75EB030E22BFB61A754640EA0C00A2
:1087B4005B084FEA3202B6EB020E75EB030E22BFE2
:1087C400B61A754640EA5C005B084FEA3202B6EB23
:1087D400020E75EB030E22BFB61A754640EA9C00E2
:1087E4005B084FEA3202B6EB020E75EB030E22BFB2
:1087F400B61A754640EADC0055EA060E18D04FEA70
:10880400051545EA16754FEA06164FEAC30343EA0F
:1088140052734FEAC2025FEA1C1CC0D111F4801FDC
:108824000BD141EA00014FF000004FF0004CB6E7D5
:1088340011F4801F04BF01430020B4F1FD0C88BF74
:10884400BCF5E06F3FF6AFAEB5EB030C04BFB6EB7F
:10885400020C5FEA500C50F1000041EB045170BD72
:108864000EF0004E4EEA113114EB5C04C2BFD4EB9F
:108874000C0541EA045170BD41F480114FF0000E23
:10888400013C90E645EA060E8DE60CEA135594EA9F
:108894000C0F08BF95EA0C0F3FF43BAF94EA0C0FA2
:1088A4000AD150EA01347FF434AF95EA0C0F7FF417
:1088B40025AF104619462CE795EA0C0F06D152EA6B
:1088C40003353FF4FDAE1046194622E750EA41064F
:1088D40018BF52EA43067FF4C5AE50EA41047FF460
:1088E4000DAF52EA43057FF4EBAE12E74FF0FF3CC5
:1088F40006E000BF4FF0010C02E000BF4FF0010C96
:108904004DF804CD4FEA410C7FEA6C5C4FEA430C0E
:1089140018BF7FEA6C5C1BD001B050EA410C0CBF5D
:1089240052EA430C91EA030F02BF90EA020F0020BF
:10893400704710F1000F91EA030F58BF994208BF26
:1089440090422CBFD8176FEAE37040F001007047E3
:108954004FEA410C7FEA6C5C02D150EA013C07D13A
:108964004FEA430C7FEA6C5CD6D152EA033CD3D085
:108974005DF8040B704700BF8446104662468C467F
:108984001946634600E000BF01B5FFF7B7FF0028B2
:1089940048BF10F1000F01BD4DF808EDFFF7F4FFDB
:1089A4000CBF012000205DF808FB00BF4DF808ED66
:1089B400FFF7EAFF34BF012000205DF808FB00BF89
:1089C4004DF808EDFFF7E0FF94BF012000205DF8AB
:1089D40008FB00BF4DF808EDFFF7CEFF94BF012060
:1089E40000205DF808FB00BF4DF808EDFFF7C4FF59
:1089F40034BF012000205DF808FB00BF4FEA410CA2
:108A04007FEA6C5C02D150EA013C0AD14FEA430C84
:108A14007FEA6C5C02D152EA033C02D14FF00000C1
:108A240070474FF0010070474FEA410212F50012FF
:108A340015D211D56FF47873B3EB625212D94FEAA1
:108A4400C12343F0004343EA505311F0004F23FA8B
:108A540002F018BF404270474FF00000704750EAE0
:108A6400013005D111F0004008BF6FF0004070479D
:108A74004FF00000704700BF53B94AB9002908BF3E
:108A840000281CBF4FF0FF314FF0FF3000F00CB84E
:108A9400ADF1080C6DE904CE00F010F8DDF804E047
:108AA400DDE9022304B07047704700BF034613F8A2
:108AB400012B002AFBD1181A013870472DE9F04721
:108AC40086468C460846089E154674461946002B71
:108AD40040F0C1808542B2FA82F245D94AB1C2F16E
:108AE400200300FA02FC954094402EFA03F343EA73
:108AF4000C0C4FEA154EA8B2230CBCFBFEF80EFB7F
:108B040018CC08FB00F943EA0C43994528D9EB1823
:108B140008F1FF3704D2994502D9A8F102072B4482
:108B2400A3EB0903A4B2B3FBFEFC0EFB1C330CFB4A
:108B340000F044EA0344A04214D92C190CF1FF3389
:108B440004D2A04202D9ACF102032C44241A43EA11
:108B540007401EB1D440002334607360BDE8F08741
:108B64004746DDE76346F1E792BB431B01214FEA29
:108B7400154EAFB2200CB3FBFEFC0EFB1C330CFBFA
:108B840007F840EA0343984561D9EB180CF1FF302C
:108B940004D2984502D9ACF102002B44A3EB08039C
:108BA400A4B2B3FBFEFC0EFB1C330CFB07F744EA38
:108BB4000344A7424DD92C190CF1FF3304D2A74228
:108BC40002D9ACF102032C44E41B43EA0040C0E7A1
:108BD400C2F120039540944020FA03F12EFA03F3E6
:108BE4004FEA154E9040AFB20343B1FBFEFC0EFBBF
:108BF4001C10190C0CFB07F841EA0041884522D9E6
:108C040069180CF1FF3004D2884502D9ACF1020096
:108C14002944A1EB08019BB2B1FBFEFC0EFB1C1125
:108C24000CFB07F743EA01439F420ED9EB180CF102
:108C3400FF3104D29F4202D9ACF102012B44DB1B69
:108C440041EA004193E76046E3E76146F7E760469F
:108C5400A4E76346B8E7834206D916B9002108465B
:108C64007CE7C6E900E0F9E7B3FA83F78FB98342FA
:108C740001D3724508D8BEEB020460EB0303012064
:108C84009C461EB9002169E73846FAE7C6E9004C5C
:108C9400F8E7C7F1200CBB400EFA07F522FA0CF4F2
:108CA4002EFA0CF1BA401C4320FA0CF3B8404FEAF8
:108CB400144901431FFA84FEB3FBF9F809FB183089
:108CC4000B0C08FB0EFA43EA00439A4540D9E3181B
:108CD40008F1FF3004D29A4502D9A8F102002344D6
:108CE400A3EB0A0389B2B3FBF9F809FB183308FBB9
:108CF4000EFE41EA03418E452CD9611808F1FF3379
:108D040004D28E4502D9A8F10203214443EA00406B
:108D1400A1EB0E01A0FB02984145CE46434602D387
:108D240006D14D4504D20138B9EB020E68EB0403B9
:108D3400002EA7D0B5EB0E0261EB030101FA0CFC87
:108D440022FA07F3F9404CEA0303C6E9003199E734
:108D54004046C5E74346D9E737B50446C8070D463C
:108D640006D5E10704D5304807F01DFC00F076F97C
:108D7400AA0708D5A30706D52C4807F014FC00F071
:108D840013FA00F06BF9680723D5610721D5284849
:108D940007F009FC0621274A1368013393FBF1F01D
:108DA40001FB10331360052B3AD8DFE803F0032FDF
:108DB40031333537204807F0F6FB684600F0C8F831
:108DC400BDF80430BDF80220BDF800101B4807F0C0
:108DD400EAFB2A0726D5230724D5164D1848296807
:108DE40007F0E1FB6424684600F0B2F8BDF80430F3
:108DF400BDF80220BDF80010286800F0BBF9013C62
:108E0400F1D103B0BDE8304000F028B90D48D2E7F5
:108E14000D48D0E70D48CEE70D48CCE70D48CAE72A
:108E24000D48C8E703B030BD74200100A62001003E
:108E3400D1200100E888002020210100EF21010059
:108E4400092201003F2101005D2101007C21010074
:108E54009A210100B9210100D721010010B504F0C5
:108E6400FBFA034630B1BDE8104001211C4A1D48FD
:108E740007F0C0BF1C4804F01FFB014620B1BDE849
:108E840010401A4807F08FBB00F034F820B1BDE859
:108E94001040174807F087BB00214FF4004008F04A
:108EA400E9FC002008F093FA012008F090FA02206F
:108EB40008F08DFA032008F08AFA00214FF40040EC
:108EC40008F0D8FC002008F085FA012008F082FAA6
:108ED400022008F07FFA032008F07CFADCE700BFE8
:108EE40050220100B81D01005D8D00006B220100BD
:108EF4008A22010038B50025124C54F8060C08F0FB
:108F04007EFB28B9104807F04EFB4FF0FF3038BD08
:108F140014F8013C63B154F8060C836821461B68BD
:108F24009847021E07DA2946084807F03CFBECE79D
:108F34006FF08502F7E70135032D04F11404DCD149
:108F44000020E4E73E1E0100AA220100CB2201001A
:108F54002DE9F04F142200268BB0314607460DEB65
:108F6400020008F04AFD0DF10E030793022337486F
:108F74000893B146B04607F016FB3546B2464FF0AB
:108F8400140B334C637953B10122237902FA03F3AE
:108F94000693237C8DF82430637C8DF8253020687B
:108FA400836805A95B689847011E10DA294807F011
:108FB400FAFA0135032D04F11404E3D13846A7F875
:108FC40000907E80A7F804800BB0BDE8F08F45B90F
:108FD400D1466279BDF90E3042B91F4807F0E3FA71
:108FE400E7E7012D0CBF5646D046F2E7E279184870
:108FF400042A08BF22680BFB05000ABF9268E189B6
:109004001189807A5943227C800644BF02F1FF32E1
:10901400D2B20491A07904A90093019202F02AFE2D
:109024000028009B08D1049B019A13419BB22DB9DF
:10903400994601251434A5E7CFDBF7E7012D03D1C9
:109044001E46022514349DE79846B7E7ED22010039
:10905400381E0100FB220100102301007FB50E48D9
:1090640007F0A1FA0D4807F09EFA00250C4C0D4EAE
:10907400636901350393236929460293E368304603
:109084000193A3680093636854F8182B07F08BFAD4
:10909400062DEDD104B070BD2E2301004323010041
:1090A400EC8800205F2301002DE9F04781468846C3
:1090B400924600252D4C8AB020680C34A0EB0900A0
:1090C400FFF798F9064654F8080C0F46A0EB080081
:1090D400FFF790F9CDE9000154F8040CA0EB0A0065
:1090E400FFF788F932463B46CDE90201304639465E
:1090F400FFF7EAF9DDE9002306460F461046194654
:10910400FFF7E2F902460B4630463946FFF726F8E8
:10911400DDE9022306460F4610461946FFF7D4F947
:109124000B46024639463046FFF718F807F0ECF8CC
:10913400FFF77AFC04AB43F825000135062DBBD1BB
:1091440001220024049953F8040F8842B8BF14463E
:1091540002F10102B8BF0146062AF4D121460448AF
:1091640007F021FA20460AB0BDE8F087A08000206D
:109174008123010010B50446084611461A46FFF73C
:1091840093FF062303FB0400054A52F82030013301
:1091940042F82030BDE81040024807F004BA00BF8E
:1091A400EC880020C523010000210A46064B01314A
:1091B4000629C3E90022C3E90222C3E9042203F118
:1091C4001803F4D1704700BFEC8800202DE9F04F5C
:1091D40091B0009302F004030293C2F3C20301337B
:1091E400840705460E46DDF868800392059340F037
:1091F400BB81041D30B1072909D86FF01B0011B0E1
:10920400BDE8F08F01F007063444C6F10806009B60
:109214004FF000094FF0040A591E4FF0FF334F4638
:109224000193CB465346CDF810900DB1009A2260BD
:109234000598002800F3E8809848009A824203D3F6
:1092440097488242C0F0E080039AA4EB050E92078F
:109254004FEA9E0000F103810F2F00F2B180002D30
:1092640000F0058107F140020DEB020C019A0CF8A5
:10927400200C0CF8102C049801300490E7E07A28B4
:109284005DD84B280ED8472859D829282DD8252809
:1092940052D054D820287AD02338D0F1000B4BEB8D
:1092A400000B74E04C382E2849D8DFE800F07048F1
:1092B400484848484848484848484B484848484827
:1092C40048484859484B4B595959704B6D48704858
:1092D400184B184848827F4B48484B487F00002071
:1092E4004FF0000B4FF0040A38E001222A38C0B2D4
:1092F40002FA00F010EA0E0F49D110F0625C2FD18F
:1093040010EA020B43D06046013C5444B4FBFAF427
:109314000AFB04F4002D61D0A3EB050CA444B4456E
:109324003FF66BAF002868D1042B47D158F8043BB3
:109334002360042304342AE0019A013A01924FF095
:10934400000B24E011F8010C6C2834D1002011F832
:10935400023C83466C2BC5D14FF0080A5346D3E731
:1093640008F1070828F00708073424F00704F8E890
:1093740002AB35B106982044B0423FF63EAFC4E993
:1093840000AB4FF0000B08344FF0080A534611F8B5
:10939400010F002878D0BBF1000F7FF470AF2528AF
:1093A400F5D14FF0010B019B013301934FF0040AF7
:1093B400ECE7584694E700208346A5E7082B02D043
:1093C4006FF015001BE708F1070828F00708F8E814
:1093D4000223C4E9002308230834D8E768B9042B1E
:1093E40002D108F10408A4E7082BE9D108F1070821
:1093F40028F0070808F10808EDE7059A013A0592F4
:1094040058F8042B009210E7039A900720D54FF0E8
:10941400010CA4EB050E4FEA9E00BEF5007FCFD2EF
:109424000F2FCDD8F5B107F140020DEB020E019AD2
:10943400C0B20EF8200C0EF8102CBCF1000F3FF453
:109444001AAF60F07F000EF8200C09F10109013712
:10945400C5F108024FF6DA7E0434069297E74FF01E
:10946400000CDAE7BCF1000F01D00136EFE70298F7
:1094740002360028EBD10098CDE90631FFF716FB40
:10948400DDE906310644E2E7631BB3F5806F97D24A
:1094940045B9A6F10804E018B1E600BF301A01008E
:1094A40094320100029A9B0828602B709DF81030BA
:1094B400C2B1EB7085F80290B9F1000F05D000221B
:1094C40008A8C5F1010C97420ED14FF0000AC5F16E
:1094D40001030DF1200801930DF1300B574512D112
:1094E400601B8CE66B70E5E710F8013B190608D5A4
:1094F4000CEB040EB64503F07F033FF67EAE04F892
:10950400013B0132DFE7B9F1000F03D098F90020E5
:10951400002A17DB029BD3B11AF80B2004F8012BA5
:109524000022019B18191044B0423FF666AE98F829
:109534000000009904F8010B2046039208F050FA49
:10954400039A14440AF1010A08F10108C6E798F8DD
:10955400002055F822300093029B009845F82230F1
:10956400FFF7A4FA421CDCE76FF00D0047E600BFEA
:109574002DE9F04F97B000AFD7F880B03B62CBF342
:10958400C0030446894690F802A0FA62BB6141B95F
:10959400457800780AEB800020444D4517D8A0EBAD
:1095A4000409E378FB61BAF1000F02D01BF0010F4C
:1095B40016D1FB6953BBFB6A1BB1494620463A6A84
:1095C40098474D4628465C37BD46BDE8F08F461C9B
:1095D4003046FFF76BFA0130304409F10109DCE74A
:1095E400626823787A62FA6A9900796104EB8301EC
:1095F400002A40F001810E464FF000084D4601EB71
:109604000A094E454CD101EB0A0610E01BF0020F8B
:10961400D1D023789A007A61626804EB83017A627C
:10962400FA6A002A77D14D46904601EB0A061BF0F0
:10963400050F0CBF02230123FB62FB6906EB430AFF
:109644000BF00203BB625645BCD016F8021B16F899
:10965400013C54F82390994B994502D3984B994572
:1096640036D3BB69002B40D0786A06F063FF00282C
:109674003BD0E9468AB06A46924B53617B6AC2E9A1
:1096840006314FF4007313848F4B42F8103F0023CC
:109694004FF412518D4801F027F9023DCD46D2E72F
:1096A40016F8013BF96254F82300FFF7FFF9D7F8E5
:1096B4008430F96A01304BB1D7F8883098453EBF01
:1096C400D7F8843023F8180008F10108054498E716
:1096D400BB6923B1786A06F02DFF0028C9D11BF0BD
:1096E400010F05D1FB6AED1AADE7BB6A002BAAD0C6
:1096F4004846FFF7DBF9D7F8843053B1D7F8883000
:1097040098453FBFD7F88420431C22F8183008F14D
:109714000108054497E7BAF1000F73D01BF0040663
:1097240073D0D046002607F1480052463B61B96227
:1097340008F056F9B96A3B6901EB0A02BA62FA69A0
:10974400F9695200FA60BA6A02EB41023A610BF01D
:109754000202BA603A69B96A8A4258D162781BF047
:10976400020F18BF00217A6208BF4FEA5801B218ED
:109774001BF0010FD2B240F09F801BF0040F14BF06
:1097840040460020BB616270A070E17020463A6AD6
:109794007969FB6A9847051EFFF614AFBB69414619
:1097A40023707B6A3A6A6370FB6984F802A0E370F1
:1097B40007F14800FB6A9847B0F10008C0F2BA808C
:1097C4007B69A9EB0A01C91AFB683A6AC91AD7E985
:1097D4000A0398470028C0F2AF804FF0000BA8445A
:1097E40008EB000507F1380AB34571D300213A6A42
:1097F4000846FB6A9847E5E656464FF0000807F12D
:10980400380092E75646D04696E7B04694E7BA6ADF
:1098140012F8021B12F8015CBA6254F82500274AB8
:10982400904202D3264A90421ED3BA6932B1786A72
:109834007B6006F07FFE7B6800288BD1BA6802BB90
:1098440008F1280207F1300C08F10100944407F1F3
:10985400580208F1020852FA80F00CF8101C5FFA62
:1098640088F800F8105C75E7BA693AB1786A7B60E9
:1098740006F060FE7B6800287FF46CAF1BF0010FDC
:1098840009D006F1280207F13000711C161806F8F9
:10989400205CCEB25EE71BF0040F3FF45BAF08F12F
:1098A400280207F1300008F1010102EB000808F872
:1098B400105C5FFA81F84DE7002063E7301A01007D
:1098C40094320100E623010004000001C81D0100D8
:1098D4001BF80A3054F8239087F83730D7F88430CF
:1098E4002BB3D7F888309B4521D2D7F8843033F88E
:1098F4001B8001213A6AFB6A07F137009847002868
:109904001ADB0544B8F1000F06D14846FFF7CEF83C
:1099140000F101081FFA88F8414648463A6AFB6A92
:109924009847002808DB05440BF1010B5CE74FF076
:109934000008DEE7454645E6054643E6014B186068
:10994400704700BFE880002030B5002587B0CDE91E
:1099540003010446009503A90548059500F06EF837
:10996400DDE904309842B8BF255407B030BD00BFCC
:1099740087050100F0B5024601680A270020074E5A
:109984000B461C780131355D6D0701D41360F0BDC1
:1099940007FB0043A3F13000F2E700BF923101005E
:1099A4002DE9F84F15469A46D378234A6F2B12F8BF
:1099B40003B081460F460BF0030B2BD026D8582B4F
:1099C4000CBF10260A26DDF82880324600234846BC
:1099D4003946FFF751F8092A08F1FF38D4B21ED8E6
:1099E4003034B145E4B277F1000788F8004001D380
:1099F400D04511D82B789B0605D5082E15D1AB7808
:109A040043F00803AB704046BDE8F88F03F0F7035A
:109A1400702BD5E70826D6E781460F46D5E7BBF17C
:109A2400010F0CBF37345734DBE7102EEBD1AB7882
:109A340043F01003E6E700BF923101002DE9F04F37
:109A44008A4616461C46002597B00390307808B91C
:109A5400284655E325280AD05146039B98470028F9
:109A6400C0F24E83731C01350493049EEEE7182262
:109A7400002110A807F0C1FF7378252B00F0A38004
:109A8400002398469E469C461846711C0F4611F8C2
:109A9400012B2B2A00F0C68000F2BD80202A00F0A2
:109AA400C480232A00F0C4802BB19DF8483043F0D1
:109AB40040038DF84830B8F1000F05D09DF84830C8
:109AC40043F020038DF84830BEF1000F05D09DF817
:109AD400483043F010038DF84830BCF1000F05D036
:109AE4009DF8483043F008038DF8483028B19DF8BC
:109AF400483043F004038DF848309DF8483003F0B3
:109B04004401442903D16FF386138DF848309DF83E
:109B140048302A2A43F0800309978DF8483040F0F2
:109B24008C809DF8493043F001038DF849307B1C4B
:109B34001A782E2A0CBF012100219DF8492061F3D7
:109B440041028DF849200CD15A1C09925A782A2ACC
:109B540040F083809DF84920023342F004028DF8DE
:109B640049201A786C2A00F0A48000F28680682AC2
:109B740000F08C806A2A00F0A5804C2A00F0AA80AC
:109B84001A4612F8013B782B04928DF84B309DF85D
:109B9400492000F217816D2B00F2A980692B00F295
:109BA4001181572B00F2BE80412B03D0453B022B81
:109BB40000F2088104229DF84A3062F302038DF812
:109BC4004A300123CAE08DF84B30B31C04939DF84E
:109BD4004930D90740F1FD8054F8048BB8F1000FE7
:109BE40007DA9DF84820C8F1000842F004028DF815
:109BF40048205A0740F1F68054F804BBBBF1000F2B
:109C040080F2F5809DF849306FF341038DF84930B7
:109C14004FF0FF3BEBE02D2A0DD0302A7FF444AF08
:109C2400012333E74FF0010C30E74FF0010E2DE72D
:109C34004FF001082AE7012028E709A8FFF79AFE58
:109C4400099BBB423FF474AF9DF848201390C00FAA
:109C540060F341028DF848206AE709A8FFF78AFEFD
:109C64009DF848301490C3F3400242EAD07262F384
:109C740041038DF84830099B73E7742A26D07A2A69
:109C84007FF47EAF06219DF849200CE05A78682ABB
:109C94009DF8492006D1012161F3C6028DF84920BF
:109CA40002336DE7022161F3C6028DF849200133C6
:109CB40066E75A786C2A9DF8492001D10421EBE724
:109CC4000321F0E705219DF84920ECE707219DF8E1
:109CD4004920E8E7BDF8482022F4F04222F00202CD
:109CE40042F4804242F00202ADF84820DFE76E3BC6
:109CF400D9B201238B4040F282410B4238D113F098
:109D0400240F52D1DF075DD503219DF84A3061F35A
:109D140002038DF84A3002F07803A3F14000434275
:109D240043411BE00120A3F15801C9B200FA01F13B
:109D340011F4624F7FF43EAF40F6010739421DD162
:109D440011F4043F3ED09DF84A3060F3020302F060
:109D54007802402A8DF84A3034D000239DF84820F8
:109D6400C2F340010B4363F341028DF848202EE710
:109D740002219DF84A3061F30203E8E702209DF8CE
:109D84004A1002F0780260F30201402A8DF84A106A
:109D940002BF9DF8481041F001018DF84810632B73
:109DA400DBD1131E18BF0123D8E703219DF84A30E5
:109DB40012F0780F61F302038DF84A3014BF0123C7
:109DC4000023CBE79DF8483043F001038DF8483079
:109DD400C3E79DF94820002AACBF4FF0FF38DDF8F7
:109DE4004C8006E79F077FF513AFDDF850B00023E2
:109DF400CDE913339DF84A309DF8491003F0070369
:109E0400012BC1F3C30132D1CB1E042B04D8DFE8EC
:109E140003F0204545202000236801294FEAE3721E
:109E2400CDE910321BD19DF94030DA17CDE910325B
:109E340004349DF8483013F003074FD0324651469E
:109E4400049B039806F0D3FB0028C0F25981054413
:109E54000BE654F8043BDA17CDE91032E9E702299E
:109E6400E6D11AB243F3C033CDE91023E0E7022B65
:109E740024D1CB1E042B04D8DFE803F018101018EB
:109E8400180001294FF0000254F8043B14D00229B1
:109E9400CDE91032CDD19BB21093CAE7073424F038
:109EA4000704F4E80223CDE91023C2E754F8043B85
:109EB400109300231193BCE7DBB2CDE7042B08D148
:109EC400073424F00704D4E900230834CDE910232F
:109ED400AFE7032BADD154F8043BDDE79DF84B000D
:109EE40078283FF6C2AD62281ED8252850D05828BD
:109EF4007FF4BBADDDE910010DF13E03009312AA1E
:109F04000AABFFF74DFDBBF1000F814680F2C18023
:109F1400B9F1000F3FF4A9AD0DF13E06A6EB09031C
:109F2400002F7BD0013379E0633815283FF69DADCF
:109F340001A252F820F000BF0FA000006DA00000A5
:109F44006F9A00006F9A00006F9A00006F9A0000E9
:109F54006DA000006F9A00006F9A00006F9A0000D5
:109F64006F9A0000B9A0000091A00000CD9F0000EE
:109F74006F9A00006F9A0000A59F00006F9A00007E
:109F840091A000006F9A00006F9A000091A0000059
:109F94005146039B98470028C0F2B280013564E51E
:109FA400BBF1000FDDF840900ADB5946484607F044
:109FB4002CFDB9F1000F3FF458AD09EB000620E089
:109FC4004846FEF773FDF8E71098002800F08680F5
:109FD4000DF13E060AAB0021009612AAFFF7E0FC41
:109FE400BDF84A30BBF1000F03F0EF0343F4F04334
:109FF40043F010038146ADF84A3049DA00283FF4B3
:10A0040034AD0027A6EB090308E0109B00278DF868
:10A01400283001230DF129060DF128099DF84A1075
:10A0240011F0100206925FD00233139A1344059282
:10A034004A0644BF14995B18B8F1000F6DDDA8EB14
:10A0440003089DF848305807C3F3800B65D45906BC
:10A0540059D53FB151463846039B984700284FDBFA
:10A064005F46013530234FE01E075ABFC3F3001388
:10A074005F012B27DDE91023002BBFF63BAF5242D3
:10A0840063EB43032D27CDE9102333E7002731E7A2
:10A0940000279DF848100DF13E03A3EB09036FF36D
:10A0A40086119B458DF848107FF632AFABEB030366
:10A0B40013932DE7109B07293FF6D7ACDFE801F097
:10A0C4000C04060C08080C0C1D70CEE41D80CCE4B6
:10A0D400EA17C3E90052C8E41D60C6E4304E0746DF
:10A0E4000523A6F1050999E7080748BF01339CE752
:10A0F400184607935146039B98470028079B04DAA8
:10A1040017B0BDE8F08F2023C346594600290BF150
:10A11400FF3BEDDC4544D8466D1A37B1514638460D
:10A12400039B98470028EBDB01359DF84A30DA069B
:10A1340001D41B0706D551463020039B98470028BD
:10A14400DEDB0135069B3BB151469DF84B00039B7A
:10A1540098470028D4DB0135059F2F4406E051467B
:10A164003020039B98470028CADB01357B1B002B5A
:10A17400F5DC33464A465146039806F038FA00287F
:10A18400BEDB0544A844A8EB0503002B7FF76DACA8
:10A1940051462020039B98470028B1DB0135F2E7A4
:10A1A4009F2401002DE9F047058B044628079046BB
:10A1B40011D4022905F0070540F0CC80204606F0B2
:10A1C40099FC78B10138218B042811D8DFE800F01C
:10A1D400C2106D85950001290CBF45F0100545F0AE
:10A1E4002005258388F31188BFF36F8FBDE8F087BE
:10A1F40001F0070AAA4500F0A5800027B9463E46AB
:10A20400A368002B00F0BC8041F00801218388F38F
:10A214001188BFF36F8FA168002900F0BA800D6820
:10A22400002900F0B680334652462046D1F8048017
:10A23400C047002D76D02B6829461D46F0E701F073
:10A2440007035A1F012A1BD8002221F00701062BFD
:10A25400276889B2C4E9002209D13B4603E0628B36
:10A26400013262831B68002BF9D141F002012046C0
:10A27400218306F03FFC00287AD041F0200176E0EB
:10A28400042B0AD121F0070189B22046218306F06C
:10A2940031FC10B141F020012183218B01F0070A28
:10A2A400AA454FD00027B946AAE7236921F0070140
:10A2B40041F00601062DD3F8009021832DD1B9F188
:10A2C400000F3FD041F00801218388F31188BFF3C8
:10A2D4006F8F20463949C84729E021F007012369D7
:10A2E40041F0040189B2042DD3F804902183E6D00F
:10A2F40000274FF0040A3E4682E721F00701236954
:10A3040041F0050189B2052DD3F808902183D6D0F8
:10A3140000274FF0050A3E4672E700274FF0060A71
:10A324003E466DE72B4687E7B9F1000FD1D1EFF335
:10A334001188202383F31288BFF36F8F238B23F0BC
:10A3440008032383258BEA062ED525F010032383E7
:10A3540005F007056669218B002EBFF670AF002358
:10A364002768C4E9003321F0070141F0010121838A
:10A37400218B4FF0000901F0070AAA457FF440AF92
:10A38400002F9CD041F00801218388F31188BFF38A
:10A394006F8F002FC8D03D68394633465246204659
:10A3A40006F0D4FB2F46F4E7AB067FF51BAF25F090
:10A3B4002003238305F0070500E700BF7D0B0100A0
:10A3C4002DE9F047044607464FF00109DFF85080B5
:10A3D40014B93846BDE8F08794FAA4F5B5FA85F5C2
:10A3E40009FA05F32E0108EB05156FEA030A24EABE
:10A3F40003042B7B002BEBD058F806301B694BB9B8
:10A404004644736804222846196807EA0A0706F0D6
:10A4140079FCDDE7284698470028D9D1F0E700BF4A
:10A42400181E010030B5002289B00F490F4807F00B
:10A43400AFFA002200230024CDE906230E230C4D9D
:10A44400CDE903344FF440722846CDE90144094B69
:10A454000949009405F04CF90849284607F074F9B5
:10A46400204609B030BD00BF85A40000208600202E
:10A474009881002099A70000A88C0020A024010046
:10A48400014804F005BF00BF888100202DE9F04792
:10A49400804621480F4606F019FC0646002833D0B2
:10A4A40000252846BDE8F087237B83B12368DB6859
:10A4B4000BB120469847636883F8069023681B69AC
:10A4C400D3B9636804222046196806F01BFC0136E0
:10A4D40010345445E8D3B8F1000FE2D0002DDFD09A
:10A4E4002846FFF76DFF0546002FF7D000214FF4F3
:10A4F400A47007F0BFF9F1E7204698470028E0D0A0
:10A5040009FA06F31D43E2E705464FF00109034C3F
:10A51400DFF80CA0DDE700BF8C890020181E0100C5
:10A52400281E0100014B53F820007047881E0100CB
:10A5340008B5034608462BB1044A136000F06EFCCC
:10A54400002008BD6FF01500FBE700BFEC80002081
:10A5540010B5044C237813B9034804F099FE012381
:10A56400237010BD988C00208881002010B504460B
:10A57400094806F0ABFB3CB1084BD3E8EF1F0139A7
:10A58400C3E8E21F002AF8D1054807F00DFABDE838
:10A594001040044804F07CBE84890020888900208F
:10A5A400208600208881002000200146034BD3E848
:10A5B400EF0FC3E8E21F002AF9D170478489002015
:10A5C40070B5FFF7F1FF0546074C084EB44200D3BF
:10A5D40070BD63685B792BB123685B6813B129464E
:10A5E400204698471034F1E7181E0100281E010088
:10A5F40010B5044C0449204606F015F9034B1C60C1
:10A6040010BD00BF38810020741E01007C89002029
:10A6140000230D4A10B513700C4A4FF40041136027
:10A624000B4A0C481360FFF783FFFFF7E1FF0A4B67
:10A634000A4918468B4200D310BD1A1A5C681211DD
:10A64400013222711033F5E7998C002084890020AF
:10A6540088890020CD0C0100181E0100281E01006D
:10A66400014600220023014806F0FEB8388100208C
:10A67400014806F097B900BF38810020024B01461B
:10A68400186806F0E3B900BF7C890020014806F091
:10A6940018BA00BF3881002070B5274B18780028FD
:10A6A40049D0FFF7E5FF0546002841D1234B244C50
:10A6B4001B68002B19DD07F069F94FF47A72A0FBCF
:10A6C400020302FB0131C30B43EA4143D4E90020F6
:10A6D4009B1A40F2E9324FEAD13161EB0001934217
:10A6E40071F1000101D3FFF76BFFD4E9003213F5D8
:10A6F4007A7342F10002C4E90032BDE87040FFF70A
:10A70400C5BF63685B7923B12368294620461B686B
:10A7140098471034B442F4D32846FFF7AFFF094BEF
:10A72400D3E8EF1F0139C3E8E21F002ABED0F7E7E0
:10A73400054C064EEEE770BD988C002084890020FD
:10A744001886002088890020181E0100281E010098
:10A7540070B50D4D297861B90120FFF797FE0B4CB8
:10A764000B4EB44206D3FFF797FF0028FBD1012319
:10A774002B7070BD63685B791BB1236820469B68AE
:10A7840098471034EDE700BF998C0020181E010093
:10A79400281E010000212DE9F0470846FFF776FE48
:10A7A400044648B340F267684FF0000905F060FAC8
:10A7B4001A4B186030B11A4B1B68092B02DD19487B
:10A7C40004F066FD0025184FDFF858A044B1204678
:10A7D400FFF7F6FD044618B94FF0FF384FF0FF3984
:10A7E400FFF75AFF064628B9B5B942464B465046CC
:10A7F40004F082FD3546E9E74FF0FF384FF0FF39AA
:10A80400D4E72B689B691BB1002228461146984760
:10A814001035BD42F5D3E8E7044DFAE780890020FE
:10A824008889002088810020281E0100181E01004C
:10A8340013B5184806F04AFA174B1B7873B1EFF3B7
:10A844001184202383F31288BFF36F8FFFF724FF53
:10A8540084F31188BFF36F8F02B010BD0F4B1B68D8
:10A86400002BF9D050B9002200230D48CDE9002374
:10A874004FF40042002305F0F7FCEDE70928EBD183
:10A88400074807F091F8074802B0BDE8104004F00B
:10A89400FFBC00BF88890020998C0020808900209B
:10A8A400208600208881002010B5064B04461B68D2
:10A8B40098472146A060044806F055F8BDE81040CA
:10A8C400FFF7B6BFEC80002038810020044A054B16
:10A8D4009B1AB1EBD30F34BF52F8310000207047FC
:10A8E400B81D0100181E01002DE9F04F8FB0C1F30F
:10A8F4004A2804AF0D469146B8607B600C0DB8F150
:10A90400000F63D000264FF0040B4FF00A0A07F142
:10A914001403C7F80C80C7E907667E620193CDF87B
:10A9240008B0CDF800A007F11C0332464846F96888
:10A93400FEF71EFEB0F5006F03461CD36C468AB0CA
:10A94400D9F8041004AB26481A46C3E9050140F2BD
:10A95400FF71D9614FF400711984224B42F8103F02
:10A964004FF4125133462048FFF7BEFFA5462C375B
:10A97400BD46BDE8F08FC0F30A0804F1170018447F
:10A9840020F0070080083B60FFF76AFE68F3532558
:10A99400044690B13B6800F11001C7E9083607F19D
:10A9A4001403F961CDE900A3CDF808B048460F4A75
:10A9B400F96807F11C03FEF7DBFD68F353252A460B
:10A9C40020467B68B96806F0BCF9D0E704F11700AB
:10A9D40020F007008008FFF743FE0446EDE700BFC0
:10A9E400B524010004000001E01D01001B0D01005D
:10A9F4002DE9F04F87B00446DDE9105ADDE91279FC
:10AA0400934698460391BFB13B465246102100201D
:10AA1400CDF80090CDF81490FEF7D8FBB0F5006F98
:10AA240006460AD340F2FF730221174A174807B0BB
:10AA3400BDE8F04F06F0DEB93E4605F1170030449C
:10AA440020F007008008FFF70BFE04F007040BF06A
:10AA5400070BE40044EA8B1444EA462444EA055410
:10AA6400054640B13FB13B4652463146CDF80090D1
:10AA74001030FEF7ABFB434622462846039907B045
:10AA8400BDE8F04F06F05DB9F4240100E01D0100BB
:10AA9400406820B1034BC01A40F3CF0070474FF019
:10AAA400FF307047B81D01000EB403B503AB53F873
:10AAB400042B01460448019306F0CDF902B05DF879
:10AAC40004EB03B0704700BF690E0100CA0605D449
:10AAD4008B064CBF02490349FFF7E6BF704700BF2E
:10AAE4002D2501002C2501002DE9F04F89B09A464F
:10AAF400149B9DF84CB00693159B04460593169B36
:10AB04000D469046179E0493BBF1000F00F09D8004
:10AB140006F48073079306F0F3F806F00209024680
:10AB240000283ED020469249FFF7BEFF0746B9F100
:10AB3400000F08D016F0440F35D12A4620468D491F
:10AB4400FFF7B2FF074406F0010353B18A4B2046D6
:10AB540053F82B20894B8A49002A08BF1A46FFF76D
:10AB6400A3FF06F48073002B49D006F00803002BE2
:10AB740063D1B8F1000F66D0424620468149FFF701
:10AB840093FF0546069B3D44002B6DD1049B002B8F
:10AB940073D1F30700F1E58031462046FFF796FFB5
:10ABA400D9E00746C3E7784B18680028CAD0774B2A
:10ABB4004FF47A791B684FF03C0CB5FBF3F5B5FB09
:10ABC400F0F14FF4616300FB115509FB05F5B1FB8E
:10ABD400F3F2B5FBF0FE03FB121100FB1E55B1FBB3
:10ABE400FCF309FB05F5B5FBF0F50CFB131120464E
:10ABF4000091CDE901E56649FFF756FFA2E706F0AB
:10AC04000803EBB1634B204653F82B206249FFF74E
:10AC14004BFF0546B8F1000F05D04246204659497E
:10AC2400FFF742FF0544BAF1000FABD0524620466D
:10AC34005A49FFF739FF0544A4E74FF0000AE1E75A
:10AC440006F00805E6E745469CE7BAF1010F069BC6
:10AC540006D1002B65D1049B002B7CD000250CE091
:10AC6400002BF8D04E485DE04E48069B22464E49E4
:10AC740005F02FFC049B002B69D0DFF83081DFF84E
:10AC84003091049F3146102F204628BF10274FF0E3
:10AC9400000AFFF71BFF554546DC059B4946204645
:10ACA4001A78FFF701FF4FF0010A1AF0070F03D1DA
:10ACB40041462046FFF7F8FE57453CD9059B4946D7
:10ACC400204613F80A20FFF7EFFE0AF1010ABAF151
:10ACD400100FEAD14FF0000A20463649FFF7E4FE90
:10ACE4005246059B20469A5C334B995C11F0970FB2
:10ACF40008BF2E223149FFF7D7FE0AF1010ABAF143
:10AD0400100F1DD01AF0070F03D141462046FFF75C
:10AD1400CBFE57455246E4D841462046FFF7C4FED1
:10AD2400EBE720485D46A0E741462046FFF7BCFE1E
:10AD34000AF1010AAFE720462149FFF7B5FEC4E74F
:10AD4400059B3B440593049BDB1B049399D1BBF106
:10AD5400000F7FF41EAF204609B0BDE8F04F06F0A7
:10AD64006DB82046054A0649FFF79EFE14E700BF6A
:10AD74003425010038250100981E01002F2501000B
:10AD84003A2B01005D250100948900209089002060
:10AD940041250100AC1E0100612501006725010069
:10ADA400970E0100690E01005B0E0100742501007D
:10ADB4006C250100762501009231010078250100FF
:10ADC4007225010042F20F7373B58B4228BF0B4604
:10ADD40005680446052168460D4A05F0F1FB064660
:10ADE400636828460B225B680A4906F019F8636811
:10ADF4003246694628465B6806F012F863681B22EF
:10AE040028465B68044906F00BF802B070BD00BF29
:10AE14006C2B0100972501007B25010000210123F3
:10AE2400064A904206D8064A01B901231360054B2D
:10AE340018607047012140085B00F2E740420F00B0
:10AE44009089002094890020F8B50D460446064FE9
:10AE54004618B44201D12846F8BD14F8011BBB685A
:10AE640001485B689847F4E7F81A0100014B036056
:10AE740000207047F41E010008B5044805F093FB58
:10AE8400BDE80840024805F08EBB00BFDD25010087
:10AE9400122601002DE9F04706460C4600AF0029B2
:10AEA40036D0D1E90012E9468AB06D46A3684FF066
:10AEB400050AA8461F48C5E90723C5E9050148F85E
:10AEC40010AF002342464FF421511B48FFF70CFDFD
:10AED400D4E90312CD466369AD461848C5E9072392
:10AEE400C5E90501C5F810A0002342464FF42151DD
:10AEF4001148FFF7F9FCCD46E3690121104A0E48D9
:10AF040005F078FFA36901210E4A0B4805F072FF92
:10AF1400012E07D1EFF305830B4A31460648103B57
:10AF240005F068FF2146304603F050FFBD46BDE8FA
:10AF3400F08700BF40260100001E01006F260100BB
:10AF44009E260100AD260100DB26010030BFFFF77D
:10AF5400FDBF00BF054B5A699B689A421FBF044A54
:10AF6400536843F080535360704700BF648C0020E3
:10AF740000ED00E070B52A4C06460D4629482A49E2
:10AF840006F00EF8A36ADB0647D52648274906F0E3
:10AF940007F81120A36A1C0704D52248244905F0A8
:10AFA400FFFF12201E4CA36A990712D521491D48A0
:10AFB40005F0F6FF636BA26A120609D501211E4A49
:10AFC400184805F017FF1EB1A36A23F08003A3629B
:10AFD4001320134CA36ADE0704D51248174905F061
:10AFE400DFFF1420A36A9C0604D50E48144905F01B
:10AFF400D7FF15200A4B9A6AD10658BF9A6A9A6AF3
:10B00400920642BF5A6A22F400525A629A6A42F085
:10B01400FF029A6200232B7070BD1020BAE700BFB4
:10B0240000ED00E0001E0100EE26010004270100EF
:10B03400372701004A270100622701007827010011
:10B044009727010010B5244C2449254805F0A8FF92
:10B05400A36A99013ED52248224905F0A1FF1E208A
:10B06400A36ADA0104D51E481F4905F099FF1F2081
:10B07400194CA36ADB0204D519481C4905F090FF5A
:10B084000220A36A1C0304D51548194905F088FF5A
:10B094002120114CA36A590304D51148154905F020
:10B0A4007FFF2220A36A9A0304D50D48124905F0B4
:10B0B40077FF2320084CA36ADB0304D508480F4913
:10B0C40005F06EFF2420A36A6FEA03436FEA13437B
:10B0D400A36210BD1D20C3E700ED00E0C6270100F8
:10B0E400001E0100DE270100F12701000B280100EA
:10B0F4003528010053280100782801009228010016
:10B1040070B5294C06460D462848294905F048FFE4
:10B11400A36AD9043CD52548264905F041FF1720E8
:10B12400A36A1A0504D52148234905F039FF1820DC
:10B134001D4CA36A9B0512D51C48204905F030FF1D
:10B14400A36BA26A100409D501211D4A174805F012
:10B1540051FE1EB1A36A23F40043A3621920124CCA
:10B16400A36A590504D51148164905F019FF1A2098
:10B17400A36ADA050ED50D48134905F011FF1B200B
:10B18400094A936A43F47F43936200232B7070BD92
:10B194001620C5E7A36A9B04F2D504480B4905F0C1
:10B1A400FFFE1C20ECE700BF00ED00E0001E0100E4
:10B1B400BD280100D328010037270100E42801003D
:10B1C400FD280100122901002D2901009727010003
:10B1D4002DE9F0478AB0694B0446D3F804A08946A8
:10B1E4001646002500AFCAF3080885F31188BFF39B
:10B1F4006F8F02F07F43B3F17F4F1ED1D3071CD46E
:10B20400500603D4110708D4012508E05C495D48C1
:10B2140005F0C6FE16F0040600D04C4600250023B7
:10B22400FB71A8F10303092B00F28680DFE803F029
:10B23400077C7F788484848484822C46EFE7524997
:10B24400504805F0ADFE00234C4EFB71F36A9A079B
:10B2540005D54E494B4805F0A3FE002329E0F36AC7
:10B26400002B01DA4A49F5E7F36A5B00F5D5494951
:10B27400444805F095FE7369A26943F480737361D1
:10B28400BFF34F8FBFF36F8F736932F8022C23F42F
:10B2940080737361BFF34F8FBFF36F8F4DF60273EB
:10B2A4009A4228D1236801213B4A364805F0A2FD81
:10B2B4002368FA79DAB907F1080604F1200C32465A
:10B2C40020686168083403C264451646F7D17A6A77
:10B2D400002D4ED0C2F3080121B96FEA52226FEA61
:10B2E40042227A62184607F10801FFF7D3FD283796
:10B2F400BD46BDE8F087B36ADBB223B10120F91D76
:10B30400FFF738FE0EE0B36A13F47F4F04D0012038
:10B31400F91DFFF7F5FE05E0B36AB3F5803F9CD352
:10B32400FFF790FE0346C4E70020F91DE8E700207C
:10B33400F91DEEE719498DE7194A6E461AF4F87FAC
:10B344008AB0184B18BF13466A461749C2E9051359
:10B35400A8F11003D3614FF400731384134B42F824
:10B36400103F00234FF411510648FFF7BDFAB546CC
:10B3740073E722F4FF7222F00102B2E700ED00E06D
:10B3840073290100001E010096290100AD29010066
:10B39400CE290100DC290100FB290100172A010044
:10B3A4005A290100452901003B2A0100040000013B
:10B3B400064B5A6942F010025A615A6942F480629B
:10B3C4005A615A6922F008025A61704700ED00E0A0
:10B3D400EFF30880EFF3098101B57246FFF7F8FE39
:10B3E40001BD00BF002080F31488BFF36F8F0020DD
:10B3F40080F30A8880F30B880F4880F3088806F0EE
:10B4040043F800200D490860BFF34F8F00F02CF87B
:10B41400202080F311880A484FF40061401880F31B
:10B424000988EFF314800221084380F31488BFF3E2
:10B434006F8F00F0D7F80000E89C002094ED00E046
:10B44400A88F0020002318460649D1F89020C2F3A3
:10B454000722934200DB7047C1F89830C1F8A0007E
:10B464000133F6E700ED00E010B572B6002484F372
:10B474001388FFF7E7FF23464FF0FF300C4A03F130
:10B4840020010133102B42F82100F8D100234FF0A2
:10B49400FF30074A03F160010133102B42F8210009
:10B4A400F8D162B6BFF34F8FBFF36F8F10BD00BFEB
:10B4B40000E100E0084B9B6883420BD1EFF3058366
:10B4C40043B1064B5A6842F080525A605A6A22F4D9
:10B4D40000425A6204F0D2BB648C002000ED00E00C
:10B4E40015498A6882F87DE04FF030001044EFF38C
:10B4F400098C80E8F01F202080F31288BFF36F8F3F
:10B504000E4F4FF000664A698A603E6092F97DE012
:10B51400506F0023536780F3118802F1300090E8E4
:10B52400F01F8CF3098802F1000004B505F042FD18
:10B53400BDE8044070470000648C002004ED00E086
:10B544001EF0040F0CBFEFF30880EFF3098081694C
:10B5540011F8021C0229FFD001B5724605F015FD51
:10B5640001BD00BF40B2002807DB01234109034AA3
:10B5740000F01F00834042F82130704700E100E0F2
:10B58400054B420953F82220012300F01F0003FA5F
:10B5940000F01040704700BF00E100E040B2002816
:10B5A40001F10101ACBF00F16040064B4FEA4111CB
:10B5B400C9B2ABBF00F5614000F00F0080F8001382
:10B5C4001954704714ED00E0044B054A23F07F033F
:10B5D4009360BFF34F8FBFF36F8F704700800000FD
:10B5E40000ED00E008B5FFF7EFFF074AD2F8883016
:10B5F40023F47003C2F8883003F0D6FC04F072FC24
:10B6040000F042F803F010FD00ED00E042F8203CA9
:10B61400009B0C4942F81C3C019B21F0010142F8BB
:10B62400183C029B42F8081C42F8143C4FF080730B
:10B6340042F8043C002343674FF43C43203A02653C
:10B64400C3677047DF05010000B5094B0E469860DB
:10B654001546436E83F30B882C4686F30988002035
:10B66400044B98472046002100220023024C204727
:10B67400648C0020C10F0100DF0501001022014B82
:10B684001A61704700ED00E0002320210348C2182E
:10B694000133452B82F80013F9D1704700E100E033
:10B6A40008B5EFF30583064A103B02EBC30152F8D9
:10B6B400330049688847BDE80840FFF74BBC00BF2A
:10B6C400381B01001FB5094C094A234601210948CA
:10B6D40000F012F900230393074B0121E41A01A897
:10B6E4000193029400F012F904B010BD0000072089
:10B6F40000800020F41E01009881002010B50C7A0F
:10B704000B6804F01F0223F01F031A43CB6864097B
:10B7140023F01F03054943EA440343F00103C1F83E
:10B724009800C1F89C20C1F8A03010BD00ED00E0E5
:10B7340010B50A4BD3F89030C3F30723013B98426A
:10B7440008D901210346064A064805F053FB6FF069
:10B75400150010BDFFF7D2FFFBE700BF00ED00E0CE
:10B76400522A0100F81D01002DE9F04F89461446C4
:10B7740006464FF00008514D85B0C84527DAD6F883
:10B7840004A0BAF1000F44D0BAF11F0F17D91AF070
:10B794001F0F14D1D6F800B01BF01F0F0FD158465D
:10B7A40005F048FC07460AEB0B00013805F042FCA3
:10B7B400874210D06FF01507414A3B4601E04346EB
:10B7C400404A0121404805F015FB6FF0150420465E
:10B7D40005B0BDE8F08F17F1160FEDD0BC42EBDDDC
:10B7E400C5F89870D5F89C10C5F89870D5F8A030B5
:10B7F40021F01F0143F01F0BD6E900321A4499428D
:10B8040002F1FF3A1DD1D34507D13146F8B205F014
:10B814001AFC08F101080C36AFE73146C5F89870F8
:10B82400D5F89C3022F01F0203F01F031343C5F820
:10B834009C30E0B205F007FC10F1160FC5D0441C93
:10B84400E7E7C5F89870D5F8A020013B23F01F0363
:10B8540002F01F021343D3453146E0B2C5F8A030CD
:10B86400E8D005F0F0FB10F1160FAED0C5F89870D3
:10B87400D5F89C209DF808300BF1FF3B62F30403DC
:10B884008DF80830D5F8A0309DF808205B0863F3E4
:10B8940047128DF80820D6E900321344009323F0B0
:10B8A4001F035B44A3EB0A03013023F01F03694623
:10B8B400C0B20393FFF73CFFBEE700BF00ED00E01A
:10B8C4009B2A0100782A0100F81D01000522044B7F
:10B8D400C3F89420BFF34F8FBFF36F8F704700BF3F
:10B8E40000ED00E0BFF35F8F0022024BC3F8942009
:10B8F400704700BF00ED00E010B5034C2278FFF75D
:10B9040033FF207010BD00BF9B8C00202DE9F74F42
:10B91400294D8A4606464FF00008AB46274FD045CE
:10B924001BDAD6F80490B9F1000F3FD0316808460D
:10B93400019105F07FFB0199044609EB01000138F0
:10B9440005F078FB84424FF014021D4B08D002FB33
:10B9540008F36FF015024BF8032003B0BDE8F08F35
:10B9640014F1160F2C60F8D01978A142F5DD02FB12
:10B9740008B0C7F89840C7F89840D7F89C4000F141
:10B984000801007B64F304000871D7F8A0000C7967
:10B99400400860F347140C71D7F89C1021F01F0184
:10B9A4006960D7F8A01021F01F01296108F101088E
:10B9B40014350C36B3E700BFBC89002000ED00E06D
:10B9C4009B8C0020F0B54149414CD1F8903025685A
:10B9D400C3F307239D4287B075D80020FFF782FF89
:10B9E4003C4BC1F8C030854216D13B4C01A82570B0
:10B9F400FFF73CFA00250646384FAE4213D100202B
:10BA040023783249D1F89020C2F30722934254DBC1
:10BA1400FFF75CFF00202FE0616801EB0011FFF7E6
:10BA24006DFE0130DFE70199280101EB0513DA68A7
:10BA34003A40B2F5001F21D0B2F5800F2BD0B2F5F9
:10BA4400801F38D15A689B680958013B22F01F00B7
:10BA540003440120844623F01F0340EA4C10CDE93F
:10BA640002218DF8100002A920780593FFF760FEEB
:10BA740000281DDA6FF0150007B0F0BD5A689B6806
:10BA84000958013B22F01F0003444FF0020C01202F
:10BA940023F01F03E1E75A689B680958013B22F031
:10BAA4001F0003444FF0000C062023F01F03D4E7CB
:10BAB40023780133237001359FE7C1F89830C1F82A
:10BAC400A00001339EE74FF0FF30D5E700ED00E022
:10BAD400001F0100AAFF44009B8C00200000F0FF1F
:10BAE400014B1860704700BFF8800020052370B533
:10BAF400144D154E2C780134B4FBF3F303EB83039C
:10BB0400E41A05F037FC114A137823B156F82430AF
:10BB1400C01A072813D90E4BD3F8141141B10021D0
:10BB2400C3F81411D3F814312C700CB90123137019
:10BB34002C7805F01FFC46F82400012070BD00207D
:10BB4400FCE700BF9D8C0020D08900209C8C002045
:10BB54000050004007B50DF1070001F06FFF0F4BD7
:10BB6400984218D14FF480620D4B0E49C3F8B825A2
:10BB74004FF40062C3F83C259DF8070005F08DFCE6
:10BB84009DF80700084905F083FC01209DF8073063
:10BB9400984001F04DFF03B05DF804FB0000AD0BCD
:10BBA40000A002402CA0024028A1024048B1054B4D
:10BBB400054A1B68B3FBF2F35843044B43F00103FB
:10BBC40018477047FC80002040420F00301E0100DF
:10BBD400012270B50C460546054B0020C3F8142617
:10BBE40005F05FFA28462346BDE870400021184757
:10BBF400005000402DE9F041064601200D4605F0B5
:10BC040050FA154B154CD3F83021D3F83431072AA8
:10BC14001ED1023B032B02D8114AD35CC3B14FF0AF
:10BC2400010800270520C4F81886C4F8147605F026
:10BC34002DFC4046C4F8148605F028FCC4F814769C
:10BC4400C4F8187630462B46BDE8F0410021184769
:10BC54000023C4F81436F5E700F007200050004034
:10BC6400D12A01000149024804F093BF281F0100B2
:10BC7400E489002014280ED8084A12F8103053B171
:10BC840002EB4002527832B10868434393FBF2F36B
:10BC940000200B6070476FF015007047D52A010033
:10BCA40008B502F099FE094A034690420DD00848AF
:10BCB4000121084A05F09EF86FF004030648436228
:10BCC400BDE80840143005F007BA08BD0000AD0B0C
:10BCD400C01D0100FF2A010000800020044B93F8DE
:10BCE4003A3013B1034802F027BFFFF7D9BF00BFB2
:10BCF40000800020ADBD0000074BD3E8EF2F511C9E
:10BD0400C3E8E01F0028F8D10AB9FFF7E7BF6FF0D6
:10BD14000F025A62704700BF0080002080B500AF58
:10BD240088B06A46094BC2E905304FF40073938327
:10BD3400074B42F8103F00234FF4E2510548FEF749
:10BD4400D3FD6FF00400BD4680BD00BF1D2B010074
:10BD540003000001C01D010010B500220E49044675
:10BD64000E4805F015FE002002F006FD0C4B98422B
:10BD740004D02068BDE81040FFF7D0BF00220121A5
:10BD84000E20FFF70BFC0748C36813B9043005F015
:10BD9400A3F9002010BD00BFFDBC0000608000209E
:10BDA4000000AD0B008000202DE9F0410778002F42
:10BDB40040F08E80514CE26A94F850C025461CEA4B
:10BDC400020F0AD100224E4BC3F80025A36A6BBBB5
:10BDD4004C48BDE8F04105F07FB90123B0F808E014
:10BDE400A66D4FEA4E0ED0B218420AD094F89820AD
:10BDF4000CEA030192B121B132460EEB06019142E5
:10BE040004D15B009BB26345EED9DBE732F9028BC8
:10BE1400B8F1000FB8BF22F8027CF0E721B1B6F9FF
:10BE240000100029B8BF32800236EAE7236CB4F868
:10BE34004C2033B1344935489847012828D002288A
:10BE44003BD0B4F84C30B4F848209A4235D9013389
:10BE5400A4F84C3094F89830F3B9A36D94F85120B9
:10BE640003EB4203A36594F85110A06D02F06EFD3C
:10BE7400274A034690420FD00121264A264804F05F
:10BE8400B9FF6FF004031F48636205F025F903E06E
:10BE940094F89830002BE6D0E36B1BB9BDE8F04171
:10BEA400FFF71CBFD5E8EF3F5A1EC5E8E12F002974
:10BEB400F8D1012BF2DCBDE8F081E36B002B87D0D5
:10BEC40094F89830002B83D1144805F06DFD7FE77A
:10BED400022F10D102F080FD0D4A03469042EAD0B1
:10BEE4000D4801210E4A04F085FF6FF00403034856
:10BEF400436214306DE7052FDDD169E7008000202F
:10BF040000E000401480002028800020181B01005D
:10BF14000000AD0B3D2B0100C01D0100608000201E
:10BF2400FF2A0100002330B50A7987B0CDE9033335
:10BF34008DF8143002F01F030C46072BC2F30401E2
:10BF44008DF8151008D90121524A534804F052FFC4
:10BF54006FF0150007B030BD61798DF8131012F041
:10BF640020010CBF0A46A2798DF8142022780C2AED
:10BF74001ED8DFE802F00A07111D131D151D1D1739
:10BF8400191D1B0001228DF80E206278032A15D09A
:10BF9400042A16D0414A0CE00222F4E70322F2E715
:10BFA4000422F0E70522EEE70622ECE70722EAE79F
:10BFB4003B4A0121384804F014FFC9E701228DF8F7
:10BFC4000F2044F20A006288824227D843F6FE70AA
:10BFD400824203D8002A52D0324AEAE7A2F57F52BD
:10BFE4003F3A0B2AF8D801A050F822F08BC0000089
:10BFF400DDBF0000DDBF0000DDBF000043C0000066
:10C00400DDBF00003DC00000DDBF0000DDBF00005B
:10C01400DDBF0000DDBF000083C0000044F2140057
:10C0240082422ED044F2280082422CD044F20F00E7
:10C034008242D1D1032200E001228DF81020012593
:10C04400194A05FA03F392F85000DBB2E9B1A17979
:10C0540009B18DF8115020EA030303A882F8503087
:10C0640002F0D4FB114B984211D0237903F01F0343
:10C07400012100900E4A084804F0C6FE68E7022237
:10C08400DBE70422D9E70522D7E70343E5E70020ED
:10C0940060E700BF582B0100C01D01008E2B01007A
:10C0A4006F2B0100B22B0100008000200000AD0BBB
:10C0B400DD2B01002DE9F0430E4685B04FF0FF3330
:10C0C4004FF0FF327C4803F017F977687B1EFE2B94
:10C0D40005D97A4A01217A4804F083FE10E000254C
:10C0E4002C4627FA05F3DA0715D502F09FFBE84042
:10C0F400C3070ED42B46734A0121714804F07AFE1B
:10C104006FF015046C4804F0E7FF204605B0BDE865
:10C11400F0830134E4B20135082DE2D10CB96A4A46
:10C12400D8E7337CA3F10802062A0FD8DFE802F02F
:10C13400100E120E040E0C000221012C727C0BD086
:10C14400002A45D0614AC5E70321F6E7604AD3E7F0
:10C154000021F2E70121F0E7082A06D8DFE802F01F
:10C16400080808080808080808001346594AC3E7DD
:10C1740033686BB3186801387F2829D88DF80820F4
:10C1840000228DF809201B68534A1B01013BADF8BE
:10C194000A300123384682F898308DF80C3002AA10
:10C1A4004E4B02F079FB4E4B9842A9D133686200A2
:10C1B40013B19B8903FB0222F368934211D201213C
:10C1C40000923F48474A04F01FFE6FF00B0499E7C2
:10C1D4000020414B83F898003846404B02F02CFB7A
:10C1E400E1E73D4D214685F85140B06895F8983017
:10C1F400A946A8652BB133689B89013313FB04F46A
:10C20400A1B202F0A3FB364B8046984202D0364AD4
:10C21400034671E73746354C0FCF0FC43B68002700
:10C2240023606F623368002B42D00FCB261D86E853
:10C234000F00EB6BAE62A5F84C70002B38D0D9E838
:10C24400EF3FC9E8E27F002AF9D195F89810E9B9DF
:10C254004FF40047E86B264E0023E0FB0761254AB4
:10C264003046FCF709FC0022CDE90001002304F16B
:10C27400280003F0F9FF4FF0FF324FF0FF331E4860
:10C2840003F03AF800B168626C6A3BE702F0A4FB81
:10C2940040450346EFD00121184A094804F0AAFD9D
:10C2A4006FF00403A4F124006B6204F015FFE2E7CD
:10C2B400FFF714FDDFE700BF04800020FD2B010021
:10C2C400C01D01001B2C0100352C0100702C010045
:10C2D4004B2C0100A22C010000800020ADBD000009
:10C2E4000000AD0BC52C01003D2B0100288000206F
:10C2F4003F420F0040420F0014800020EA2C01004E
:10C30400084B70B5C31A0D4607499B1004465943A0
:10C314004022064804F0EBFE2B4601462046BDE8C9
:10C3240070401847148A0020B76DDBB6981A0100D4
:10C33400402373B50B4C0093041B0B460D460A496E
:10C34400A41061430646094A094804F0FBFE011E95
:10C3540005DA30462B4602B0BDE87040184702B0FB
:10C3640070BD00BF148A0020B76DDBB6B1110100A7
:10C37400981A010010B5EFF31184202383F3128877
:10C38400BFF36F8F074A136823F00201DB071160C4
:10C3940002D4012005F08DF884F31188BFF36F8F68
:10C3A40010BD00BFB48A00202DE9F843002201210A
:10C3B40006460520FFF7F2F8114801F0C3FB114BC4
:10C3C400984219D101F0CEFB00244FF01C090C2730
:10C3D400DFF834803569414609FB045004F0D9FB89
:10C3E400002807DB012307FB04551C44042CAB671E
:10C3F400F0D10020BDE8F8836FF00400FAE700BF35
:10C404000DC500000000AD0B341F01001FB5002254
:10C414000123CDE902236B46084ACDF800D0CDF8BC
:10C4240004D004F0BCFE002805DB4FF48042002356
:10C43400684602F061FF05B05DF804FBE7110100F6
:10C444000C22104B014602FB0033002030B4D3E928
:10C454001C521867EFF31180202484F31288BFF371
:10C464006F8F9C6F04F0C00444F002049C6780F357
:10C474001188BFF36F8F1DB12B4630BC024818479B
:10C4840030BC7047148A0020981A010010B4EFF3EE
:10C494001182202383F31288BFF36F8F174801683A
:10C4A40041F002040460C80707D482F31188BFF383
:10C4B4006F8F012010BC01F06DBB1149D1F80C0441
:10C4C400D1F80C14C907F0D5EFF3118083F3128867
:10C4D400BFF36F8F0B498B6F03F0C00343F002036C
:10C4E4008B6780F31188BFF36F8F82F31188BFF3DA
:10C4F4006F8F002010BCFFF7A3BF00BFB48A0020D9
:10C5040000500040148A0020092813D8DFE800F006
:10C5140005101212121212120E0C074B986F10F023
:10C52400070007D1FFF78CBF0220FBE70320F9E7E0
:10C534000120F7E7704700BF148A00202DE9F0417D
:10C54400012207463449D1E8EF3FC1E8E02F002833
:10C55400F9D133B9314932484B60CB608A6004F079
:10C564002BFB7B1E012B28D8012F06D12D4BD3F892
:10C574001C3403F00303022B1FD005F0DFF805463B
:10C58400E8B9294B1B78D3B102220646254BC3F8E0
:10C594000823244CDFF89480D4F81824D4F81834F1
:10C5A400D20315D503F00303022B01D0012F0FD1C1
:10C5B4006DB386F31188BFF36F8FBDE8F081EFF39D
:10C5C4001186202383F31288BFF36F8F0125E0E7E0
:10C5D400C5B1304604F012FDD4F81835DBB2012B96
:10C5E400DAD1D4F80421002AD6D00022C4F80421D8
:10C5F400D4F804210222C4F818252022C8F8802186
:10C60400A360C9E70021212005F034F9E4E7022200
:10C61400044BC3F80423D0E7108A0020008A0020CA
:10C62400308A002000500040A28C002000E100E08D
:10C6340008B5074804F0E3FF38B10648FFF750FA9D
:10C644000448FDF77BF9002008BD6FF01200FBE7FA
:10C65400F81A01005DC600000A2838B50446074DE3
:10C6640004D1AB680D2128465B689847AB68034842
:10C674005B68E1B29847204638BD00BFF81A010054
:10C68400F0B51646426801F01F04107B87B044EAF7
:10C6940040141069002871D0B6F5001F02F110058E
:10C6A40006D12146284604F084FF002007B0F0BDDF
:10C6B4000027B6F5800F01A80197476039D1B3F17F
:10C6C400007F14BF052304238DF804300023CDE933
:10C6D4000403039393680DF1030723FA01F111F0A6
:10C6E40001013DD1B6F1A07F3AD104F01F036209E4
:10C6F40003F1800328D0012A46D1254A52F8233079
:10C70400DB072DD43A462146284601F057FD214B3C
:10C7140098421BD002972146284603AA01F006FC42
:10C724001D4B98422DD101222146284601F09EFD41
:10C73400BBE7B3F1C06F05D0B3F1007F14BF012391
:10C744000223C1E70323BFE7144AD7E73946284643
:10C7540001F084FD104B9842DCD06FF00B00A5E78C
:10C764003A462146284601F029FD0B4B9842D2D186
:10C7740028469DF8031001F069FDCCE76FF08500B1
:10C7840094E76FF0150091E751F82330FFDE00BF06
:10C79400002884400400AD0B0000AD0B002584404C
:10C7A4004209034670B502D0012A17D070BD0D4E60
:10C7B400326951680029F9D0012503F01F030C6880
:10C7C4009D400029F2D08A682A4002D030464B6846
:10C7D40098472CB1236821461C46F2E7024EE7E74E
:10C7E4002346F8E7D81A0100B81A010038B545689D
:10C7F4002B69B3B11035284601F01EFD044680B9FB
:10C804000146284601F0F4FC084B98420BD122461D
:10C814002846074901F0CCFC224605212F20FEF7CB
:10C82400BDFE002038BD6FF00400FBE70000AD0B37
:10C83400A5C700002DE9F04340F206354668D0064E
:10C8440048BF0320337B02EA050558BFC2F34010FA
:10C8540087B001F01F07B5F5837F144647EA4317F5
:10C864008DF8030043D00FD8062D18D007D8B5B1E2
:10C87400022D3ED06FF0150007B0BDE8F083B5F58A
:10C88400807FF7D101250AE040F20222954232D09E
:10C89400B5F5407F31D0B5F5007FEBD102252203F9
:10C8A4002DD5012372688B409360326982BB07F0F7
:10C8B4001F037F092AD0012F77D13E4A02EB83025E
:10C8C40084F48033D2F80012C3F30043C4F3404429
:10C8D40044EA430421F4706144EA800421F00F0126
:10C8E40044EA05230B43C2F800320020C4E70725BD
:10C8F400D5E70425D3E70525D1E70325CFE763036F
:10C9040041BF012372688B40D360CEE72A4AD5E742
:10C914001036394630460DF1020201F04FFC14F492
:10C92400403F80460CD13946304604F040FE234B4C
:10C934009845DAD130469DF8021001F087FCD4E71F
:10C944004FF0000901AB3946304603AACDE904395A
:10C95400CDE90199CDF80C9001F0E8FA174B984213
:10C9640088D114F4003315D09DF8033084F4803456
:10C97400C4F300448DF80E3039464B46304603AAC2
:10C984008DF80C508DF80D4001F090FB0B4B984244
:10C99400CDD06FE7CDE9043339460DF103033046BA
:10C9A40003AA039301F0C2FAF0E7803352F823306C
:10C9B400FFDE00BF00288440002584400000AD0B4A
:10C9C400036803F01F025B09026004D0012B0348D3
:10C9D40018BF002070470248704700BF00288440F9
:10C9E400002584402DE9F04F1546834640F2FF1898
:10C9F400DFF88891DFF888A185B000EB8101594503
:10CA040003D1002005B0BDE8F08FDBF80030C3F39C
:10CA1400C322082AC3F3080400F2AA801B0E44456B
:10CA240008BF4FF0FF3419F80270222B00F2A380E4
:10CA3400DFE803F012191F22252B22A1A1A1A13A9C
:10CA440067A1A1A1A1A1A1A1A1A16A7F8285A1A1A0
:10CA5400A1888F9295989B00C5F80C45601C5DD108
:10CA64000BF1040BCBE7C5F81445621CF8D0002683
:10CA74005DE0C5F80845F1E7C5F81045F5E7631C26
:10CA8400C5F80845ECD0002604E0661CC5F80C4542
:10CA9400E6D0012603A80394FFF792FF0122039B2B
:10CAA40002FA03F3C36008E0C5F80845002FDCD19F
:10CAB400631CD5D0002606273246DBF800300394E9
:10CAC40003F40040002818BF002203A818BF012661
:10CAD40001930092FFF774FF039C019B00EB840019
:10CAE400D0F80042C3F3412C009A3B0243EA8C0382
:10CAF400134304EA0A04234343EA4603C0F800321A
:10CB0400AEE7C5F80C45D1E7C5F86045601CDBF815
:10CB14000030A5D0C3F30043002BBAD0012603A8EC
:10CB24000394FFF74DFF039B06FA03F38360324639
:10CB3400C3E7C5F86445E9E7C5F86845E6E7C5F81D
:10CB44006C45E3E7C5F82445621C89D00126002220
:10CB5400B3E7C5F8284581E7C5F83045F4E7C5F8DB
:10CB64003445F1E7C5F83845EEE7C5F83C4575E7C7
:10CB74006FF0150046E76FF0850043E76E2D010066
:10CB8400F0F0FCFF2DE9F04104460D46476804F03F
:10CB9400D5FD4FF0200888B9264B1B7873B1642665
:10CBA400606804F09BFBF0B9012004F06FFC013EC7
:10CBB400F6D10021212004F05DFEF0E7EFF31186A9
:10CBC400314688F31288BFF36F8F606804F086FBE8
:10CBD400A8B986F31188BFF36F8FEFE786F3118846
:10CBE400BFF36F8FE5E7EFF31186314688F31288C0
:10CBF400BFF36F8F606804F071FB0028EED0FB690F
:10CC040000201D706368FA691B68C3F8442501227B
:10CC1400C3F84825C3F82001D3F82041C3F85801CC
:10CC2400D3F858019A6081F31188BFF36F8FBDE880
:10CC3400F08100BFA28C0020F8B505460022012136
:10CC44000820FEF7ABFC0820FEF78CFC6C68012181
:10CC5400E06804F074FB6B6819682369C1F8243533
:10CC6400A27D637D207D1343228B02431343C1F8CD
:10CC74006C356E68D6E9004313F001034AD02F697E
:10CC840007F1080000F0DAFE2F4B984207D02F4836
:10CC940001212F4A04F0A5F86FF00400F8BD387A9A
:10CCA40004F10C0204F5907104F0FCFB387A0127BE
:10CCB40007FA00F000F0BCFE0823C4F80035F3695D
:10CCC400C4F844350023C4F84835A760D4F8583173
:10CCD400002BFBD00026C4F800656B683146D86889
:10CCE40004F02DFB6D683146E8682C6804F027FBDE
:10CCF4000823C4F800352A7A52B92B6AC4F83435AB
:10CD04000123C4F83835C4F81021D4F81021236065
:10CD14000020C3E70822C4F80025F269C4F84425BA
:10CD2400C4F848350123A360D4F82031002BFBD08C
:10CD34000023C4F82031D4F820310123E3604FF4F8
:10CD44008073C4F80433C1E70000AD0B101E01006A
:10CD5400772D01000123834070B5DC430B4AD2E8F0
:10CD6400EF1F01EA0405C2E8E65F002EF7D14FF495
:10CD7400803282400648C0F80823BFF35F8FBFF3B8
:10CD84006F8F0B4214BF0120002070BDE08A002089
:10CD94000050014070B40E4922F07F46D1E90034BE
:10CDA400D01AC31844F10004C1E90034A6F50013F5
:10CDB400B3F5400F09D2074B1B681A0A1B069C19CE
:10CDC400054B42F10005C3E9004570BC03F066B9A8
:10CDD40068860020E48A002070860020D9B10123EF
:10CDE4000D4A8340D2E8EFCF4CEA030CC2E8E1CF0E
:10CDF4000029F7D14FF48033084A8340C2F8043342
:10CE0400074BD3E8AF3FC340DB0742BF4FF40012E8
:10CE1400044BC3F800217047E08A00200050014011
:10CE2400DC8A002000E100E00D4B1868010A0006CE
:10CE3400BFF35F8F0B4BD3F80435181841F1000191
:10CE4400B3F5801F0AD2084BD3E90023904271EB5B
:10CE5400030303D210F1807041F10001704700BF59
:10CE6400E48A002000500140708600202DE9F04F34
:10CE740085B016461F4604469DF840A0FFF76AFF9A
:10CE84000190FFF7D1FFB04271EB070352D23B4B45
:10CE9400301A67EB0101984271F100014DD2384B11
:10CEA40003EB0413D3E902239F4208BF964258D0F0
:10CEB4004FF48038334908FA04F8204626F07F4BB3
:10CEC400C1F8488304F04AFA4FF00309584604F1C4
:10CED4005005AD00ADB205F1804504F5A87305F524
:10CEE400A8350293029A20F07F4341F82230C1F81A
:10CEF4004483D1F80435244AC01A033820F07F4013
:10CF040090422ED9286868B1D1F80435A3EB0B0000
:10CF140020F07F40B0F5000F039322D9204604F09F
:10CF24001DFA039BBAF1000F07D109EB030009F1C5
:10CF34000109D7E7BAF1000F09D06FF015052046B3
:10CF44000199FFF74BFF284605B0BDE8F08F012398
:10CF54000E4AA340D2E8EF0F1843C2E8E10F0029BC
:10CF6400F8D107490E982301C8500F9B01EB041216
:10CF74000025C2E902675360E1E700BF01008000B9
:10CF84005886002000500140FDFF7F00DC8A00200D
:10CF94007FB500254FF0FF304FF0FF31194C1A4B8D
:10CFA4000226C4F80833C4F84833184BC4F80855AB
:10CFB400C3E902014FF480334FF40012C4F8043380
:10CFC400134B0121C4F804631520C3F880212A46B9
:10CFD400FEF7E4FA1520FEF7C5FA01230D4AA36013
:10CFE400236013600C4B0D4A009328460023CDE9BF
:10CFF4000155FFF73BFF3046FFF7A0FA284604B07F
:10D0040070BD00BF0050014003000F00588600208F
:10D0140000E100E0E08A002099CD0000FFFF7F00DE
:10D024002DE9F7432E4BD3F8042390070BD5D3F8FF
:10D03400042142B10022C3F804212A4AD3F804315E
:10D04400136801331360264AD2F80433D90326D572
:10D05400254BD3E8EF1F21F00100C3E8E40F002CB7
:10D06400F7D1CB0702D4D2F84031C3B100251C4C10
:10D07400C4F84051D4F84031FFF7D6FEEFF31182E3
:10D08400202383F31288BFF36F8F184BD3E9026711
:10D09400B042B94106D282F31188BFF36F8F03B057
:10D0A400BDE8F0834FF0FF38D3E900104FF0FF39AB
:10D0B4001D60C3E902894FF48033C4F84833C4F8CF
:10D0C4004051D4F8403182F31188BFF36F8F0029A7
:10D0D400E5D0009032463B4628468847DFE700BF4C
:10D0E40000500140E48A0020DC8A00205886002099
:10D0F40030B5431C124C85B005D08442A8BF044609
:10D10400012CB8BF0124FFF78FFE0E4B0C4DD3E961
:10D114000013401AB0F5000F0FD22218AA4228BFFC
:10D124002A46002052180849CDE90100009143F134
:10D134000003FFF79BFE05B030BD2A46F1E700BFB0
:10D14400FFFF7F006886002099CD000008B5FFF737
:10D154006BFE024B1B68C01A08BD00BF6886002026
:10D1640008B50349034804F02EF96FF0150008BD13
:10D17400B02D0100D81D010008B50349034804F08F
:10D1840022F9002008BD00BFCB2D0100D81D0100ED
:10D194002DE9F74300244FF001082546124E30686C
:10D1A4003779D0F81090836801A95B689847002804
:10D1B4000CD014DB08FA05F31C430135042D06F1E9
:10D1C4000806ECD1204603B0BDE8F083D9F800206E
:10D1D400019B08FA07F753403B42EED0EAE703B05D
:10D1E400BDE8F043FFF7C8BF082001002DE9F04176
:10D1F400074688460025104E27FA05F212F0010270
:10D2040010D128FA05F3DB070ED53179306804F024
:10D21400CAF8044640B10949094804F0D4F8204644
:10D22400BDE8F0810122F0E70135042D06F108067E
:10D23400E2D10024F3E700BFE81F0100E02D010064
:10D24400D81D01002DE9F04707460026204DDFF8E0
:10D254008480DFF88490DFF884A0286847B34045D1
:10D2640029D0484514BF4FF0E8624FF098622979FD
:10D274008368D0F810C09C6904B3130208D5012355
:10D28400DCF800C08B4013EA0C0F18BF82F0C062B8
:10D2940002EA0A0302F0B072A047044688B10121F1
:10D2A40023460F4A0F4803F0A5FD2046BDE8F0874A
:10D2B4004FF40012DBE74FF09862D8E76FF05704A1
:10D2C400EDE70136042E05F10805C6D1EDE700BFF0
:10D2D40008200100D81A0100B81A01004000000615
:10D2E400F62D0100D81D010038B5EFF31185202378
:10D2F40083F31288BFF36F8F0F4C2378BBB90F4BA6
:10D30400984202D00E4B98420AD10020FFF79AFFB0
:10D3140018B10C490C4804F056F800220B4B1A7053
:10D324000123212223700A48002302F0ABF985F37C
:10D334001188BFF36F8F38BDA18C0020D81A01006B
:10D34400B81A0100162E0100D81D0100A08C00207F
:10D35400788600202DE9F041334F3B7853B100200B
:10D36400FFF770FF28B131493148BDE8F04104F0BE
:10D374002AB83870FFF70CFF04462E4BD3E8EF2F82
:10D38400C3E8E14F0029F9D12B4BDFF8B0801A78BC
:10D3940042BBD8F80060A64219D0294B66401B68EE
:10D3A4000BB1314698474FF0FF334FF0FF32254819
:10D3B40001F0A6FE244B1D6835B1043D2B683146AF
:10D3C400204698476D68F7E71E4801F011FFC8F83A
:10D3D400004054B1BDE8F0414FF4A47200231B484F
:10D3E40002F050B900221A70F1E7EFF311862023FE
:10D3F40083F31288BFF36F8F154B1D78012D05D071
:10D4040086F31188BFF36F8FBDE8F08128461C7046
:10D41400FFF718FF3D7086F31188BFF36F8F002864
:10D42400F2D00C49A0E700BFA08C0020322E0100EE
:10D43400D81D0100188B002028810020EC8A0020D0
:10D444001C8B0020F08A0020048B002078860020AA
:10D45400A18C00204B2E010070B500250B4E4FF41B
:10D464000031304603F08AFF044648B90135042DE3
:10D4740006F10806F3D1BDE870400F21FFF7B6BEF0
:10D484000349044803F09FFF204670BDE81F0100D4
:10D49400632E0100D81D0100054BD3E8AF3F00B156
:10D4A4000360044811B102685A400A60036070477F
:10D4B400188B0020E88A00202DE9F843384B1860C7
:10D4C400384D394804F0DCF82E460027A846F38886
:10D4D400304613F0010F0CBF2021102141F480319C
:10D4E40003F04CFF044630B13049314803F06BFF80
:10D4F4002046BDE8F8830137042F06F10806E6D17B
:10D50400064607464FF001092868297983689C6913
:10D514003CB100234FF40012A047044620B1254932
:10D52400E3E76FF05704FAE72B79013709FA03F3BD
:10D53400042F46EA030605F10805E5D105461E4F0A
:10D544001E4BC7E9013658F835008368DB6933B1EF
:10D55400012239469847044620B11949C5E76FF0BE
:10D564005704FAE70135042DEDD11649164804F0A5
:10D57400D9F80122154B14481A700023002202F036
:10D584004DF821462046FFF787FFFFF701FE104BB9
:10D59400D3E8EF2FC3E8E10F0029A9D0F8E700BFD3
:10D5A4001C8B002008200100F08A00207D2E010041
:10D5B400D81D01009A2E01000C8B0020EDD2000032
:10D5C400B52E010059D3000078860020A18C0020DC
:10D5D400188B002003280A4610B503D9BDE8104073
:10D5E400FFF7BEBD074B03EBC001097953F83000C8
:10D5F40003F0D9FE044618B10349044803F0E3FEDE
:10D60400204610BDE81F0100E02D0100D81D0100D7
:10D6140010B50749074803F0F3FE044628B1012179
:10D624000346054A054803F0E5FB204610BD00BF4C
:10D6340091D80000208B0020DD2E0100001E010087
:10D644002DE9F041DFF8D4810D46D8F8704000AFE1
:10D65400072C00F008065BD0132C00F0A080052CEA
:10D6640040F0B980D8F854806D496E4803F0C4FE88
:10D6740018F4805F41D06C496A4803F0BDFE17245A
:10D6840018F4006F04D06949664803F0B5FE182405
:10D6940018F4007F0ED06649624803F0ADFE654B76
:10D6A40018F4004F9B6B04D00121634A5D4803F0DA
:10D6B400A1FB192418F4806F04D06049594803F081
:10D6C4009BFE1A2418F4807F19D05D49554803F055
:10D6D40093FE1B24EB69002E40F09B80C3F30802E9
:10D6E40022B96FEA53236FEA4323EB6129462046AC
:10D6F400FDF7D0FBBD46BDE8F0811624C0E718F461
:10D70400005FE7D04F49474803F076FE1C24E1E769
:10D71400D8F85C4043484C4903F06EFE600606D5D9
:10D72400D8F868300121494A3E4803F063FBE10719
:10D7340005D547493B4803F05FFE2624CAE7A20704
:10D7440005D54449374803F057FE2724C2E7630749
:10D7540005D54149334803F04FFE2824BAE7200792
:10D7640005D53E492F4803F047FE2924B2E7E106D8
:10D7740005D53B492B4803F03FFE2A24AAE7A2061D
:10D7840005D53849274803F037FE2B24A2E72306A2
:10D794003DD53549234803F02FFE2C249AE7D8F8C9
:10D7A4006C8032491F4803F027FE18F0020F03D0A3
:10D7B4002F491C4803F020FE18F0010F03D02D4917
:10D7C400184803F019FE18F0040F83D02A491548AD
:10D7D40003F012FE7EE7294A294BE8468AB00F2C53
:10D7E400C8BF13466A462749103CC2E905134FF4E3
:10D7F40000731384244BD46142F8103F00234FF488
:10D8040011510848FDF770F80024C54662E7252445
:10D8140060E723F4FF7323F0010366E7208B002005
:10D82400BD280100001E0100D32801003727010094
:10D83400E428010000ED00E0FD28010012290100A8
:10D844002D29010097270100172F0100302F010017
:10D85400402F0100562F0100742F01008F2F01006B
:10D86400AC2F0100C12F0100DB2F0100EE2F0100BE
:10D874000830010038300100663001005A290100E7
:10D88400452901003B2A01000400000100B5104BAA
:10D8940089B05A6AD86C00929A6A20F00500019205
:10D8A400DA6A694602921A6B03925A6B04929A6B73
:10D8B4000592DA6B06921A6C1B6D07929B0748BFA0
:10D8C40040F00400FFF7BCFE09B05DF804FB00BFA4
:10D8D400208B00202DE9F041A2B005460E461746E4
:10D8E400984603F02BFF70B9114B1B785BB14FF0D6
:10D8F400FF324FF0FF330F4801F002FC044618B129
:10D904006FF0830510E00124684603F04DFB4246A6
:10D9140039463046289BA8470546684603F045FB30
:10D9240014B9044801F064FC284622B0BDE8F08133
:10D93400A28C002074810020002300B589B0CDE9B9
:10D94400063303AB0493042303900593A9B10B6836
:10D9540006934B6807930223111E18BF0121084840
:10D96400CDE9002140F2F53104AA00F00BF80028BB
:10D97400B8BF012009B05DF804FB0123ECE700BF48
:10D984000501004010B4B1F5004F029C0ED2042BE7
:10D994000CD8042C0AD8240444EA0364134644EA49
:10D9A4000102014610BC0348FFF794BF6FF08000EA
:10D9B40010BC7047217C000030B50468ACB1B4FAE7
:10D9C40084F30122C3F11F03DBB29A4024EA02026A
:10D9D400D0E8EF5FA54204D1C0E8EC2FBCF1000F02
:10D9E400F6D1EAD102480B7030BD0248FCE700BF13
:10D9F4000000AD0B0200AD0B10B50368CB40DB0794
:10DA040010D401238B40026843EA0201D0E8EF4FAF
:10DA1400944204D1C0E8EC1FBCF1000FF6D1F2D15E
:10DA2400014810BD0148FCE70000AD0B0400AD0B3C
:10DA3400014BC3F8040570470070014001460148DA
:10DA440000F04EB9008100200328F7B5064631D80E
:10DA5400384B394933F810000025C1F80803012177
:10DA640042F21074354B364A33F81630925D03F1A6
:10DA7400804302F1804203F5A04302F5A042116005
:10DA84001D608E421B682C4F8DF8071008BF0DF1E6
:10DA94000705022E32D0032E40D0012E1CD0D7F819
:10DAA400183403F480333DB923B1012003F0EEFCB4
:10DAB400013CF0D103B0F0BDD7F8182402F0030202
:10DAC4002A70002BF6D09DF807000128F2D103F04C
:10DAD400DDFC013CDDD1EDE7D7F80C3403F48033F1
