:020000040000FA
:10000000E05C0020DD360000FB520100C936000034
:10001000C9360000C9360000C9360000C9360000E4
:10002000000000000000000000000000393800005F
:10003000C936000000000000D9370000C9360000B2
:10004000C9390000C9390000C9390000C9390000A8
:10005000C9390000C9390000C9390000C939000098
:10006000C9390000C9390000C9390000C939000088
:10007000C9390000C9390000C9390000C939000078
:10008000C9390000C9390000C9390000C939000068
:10009000C9390000C9390000C9390000C939000058
:1000A000C9390000C9390000C9390000C939000048
:1000B000C9390000C9390000C9390000C939000038
:1000C000C9390000C9390000C9390000C939000028
:1000D000C9390000C9390000C9390000C939000018
:1000E000C9390000C9390000C9390000C939000008
:1000F000C9390000C9390000C9390000C9390000F8
:10010000C9390000C9390000C9390000C9390000E7
:10011000C9390000C9390000C9390000C9390000D7
:10012000C9390000C9390000C9390000C9390000C7
:10013000C9390000C9390000C9390000C9390000B7
:10014000C9390000C9390000C9390000C9390000A7
:10015000C939000080EA101404F0F01480EA041099
:10016000604081EA111404F0F01481EA0411614046
:1001700082EA121404F0F01482EA0412624083EA64
:10018000131404F0F01483EA0413634080EA10248B
:1001900004F47F4480EA0420604081EA112404F4DE
:1001A0007F4481EA0421614082EA122404F47F44FE
:1001B00082EA0422624083EA132404F47F4483EA3F
:1001C0000423634081EA500404F0553480EA44007B
:1001D000614083EA520404F0553482EA44026340E9
:1001E00082EA900404F0333480EA8400624083EAB7
:1001F000910404F0333481EA84016340704700BF06
:1002000082EA900404F0333480EA8400624083EA96
:10021000910404F0333481EA8401634081EA50049C
:1002200004F0553480EA4400614083EA520404F04B
:10023000553482EA4402634080EA102404F47F4487
:1002400080EA0420604081EA112404F47F4481EABA
:100250000421614082EA122404F47F4482EA0422E9
:10026000624083EA132404F47F4483EA0423634056
:1002700080EA101404F0F01480EA0410604081EA6F
:10028000111404F0F01481EA0411614082EA12149E
:1002900004F0F01482EA0412624083EA131404F0BA
:1002A000F01483EA04136340704700BF2DE9F14F57
:1002B00094464FEA930B8A68CB6808684968FFF751
:1002C00049FF0BF1060E33E083EA134480EA13453D
:1002D00082EA134746BA96EA3444604000F00F16AB
:1002E00084EA063420F00F1684EA161054BA94EA11
:1002F0000106724002F00F1486EA043622F00F1451
:1003000086EA14124CBA6540694001F00F1485EA80
:10031000043521F00F1485EA14115CBA67407B4064
:1003200003F00F1487EA043723F00F1487EA14133D
:10033000BCE8F0006040694072407B4000F0E0346F
:1003400000F0103500F00F3040EA540040EAC500DC
:1003500080EA900404F0332480EA8400604001F0D5
:10036000E03401F0103501F00F3141EA540141EA67
:10037000C50181EA910404F0332481EA84016140DB
:1003800002F0E03402F0103502F00F3242EA54027B
:1003900042EAC50282EA920404F0332482EA84022B
:1003A000624003F0E03403F0103503F00F3343EA0A
:1003B000540343EAC50383EA930404F0332483EA35
:1003C0008403634081EA324787EA134581EA354670
:1003D00090EA060484EA034B82EA1B4280EA044462
:1003E00084EA054483EA144A85EA14448BEA044B00
:1003F00084EA374481EA0B4181EA164104EA0A00A3
:10040000454082EA04082BEA080041408AEA0B06CC
:1004100002EA060084EA34438AEA3A4603EA060717
:1004200078404540414088EA38478BEA3B4007EA3C
:10043000000985EA090583EA0709464006EA090634
:10044000714085EA010005EA3546464006EA314139
:1004500081EA304181EA364606EA304686EA354688
:10046000344008EA010886EA01052A4086EA364057
:1004700003405A4081EA31431F407C4080EA030731
:1004800009EA070988EA0908544088EA020806EAE6
:100490000A0601EA0B018AEA0B0215408AEA3A428F
:1004A000104045408BEA3B4003405E4042401740CD
:1004B00079404D404E40E443F64386EA18435D40A0
:1004C00085EA054083EA134386EA034183EA38421A
:1004D00084EA114383EA04435FEA3343BEF1010E29
:1004E0003FF6F2AE1ED4BCE8F000604069407240B6
:1004F0007B4020BCFFF784FE28606960AA60EB6047
:10050000BDE8F08F2DE9E0414FF2F00280EA1031B2
:10051000114080EA0130484041088208C3084FF08A
:10052000000E4FE700F0113001F0113102F01132EE
:1005300003F0113340EA410040EA820040EAC30080
:100540004FF2F00280EA1031114080EA0130484059
:10055000BDE8E0812DE9F04F02F11C050646074693
:1005600000EB850851F8040B043A46F8040BF9D166
:100570004FF0010CFFF7C6FF5FEA302080EA0C0065
:100580001ECF41404A4053405C401EC620004645B5
:1005900017D04FEA4C0C1CF4807F18BFACF1E50C6F
:1005A0002C2DE7D03C2D06D1FFF7ACFF06CF414004
:1005B0004A4006C6100006CF41404A4006C6100019
:1005C000D8E736E90F00FFF7C5FD043D86E80F00C8
:1005D000F7D1BDE8F08F00BF2DE9F14F03F11C0406
:1005E00002EB840C4FEA930B8A68CB680868496871
:1005F000FFF7B0FD3CE9F0006040694072407B408D
:100600000BF1060E4EE083EA134480EA134582EABA
:10061000134746BA96EA3444604000F00F1684EA65
:10062000063420F00F1684EA161054BA94EA010634
:10063000724002F00F1486EA043622F00F1486EAA4
:1006400014124CBA6540694001F00F1485EA043574
:1006500021F00F1485EA14115CBA67407B4003F067
:100660000F1487EA043723F00F1487EA141344BAEF
:1006700044404DBA4D4056BA56405FBA5F4087EA93
:10068000174886EA174B84EA17464FEA38488BEA40
:100690001B4485EA1B4788EA1B4580EA34406940D1
:1006A00072407B4000F0703400F0803500F00F3075
:1006B00040EA440040EAD50080EA900404F0332484
:1006C00080EA8400604001F0703401F0803501F070
:1006D0000F3141EA440141EAD50181EA910404F075
:1006E000332481EA8401614002F0703402F08035E5
:1006F00002F00F3242EA440242EAD50282EA920450
:1007000004F0332482EA8402624003F0703403F080
:10071000803503F00F3343EA440343EAD50383EA09
:10072000930404F0332483EA84036340C943DB4326
:1007300081EA000483EA044686EA020183EA01436F
:1007400082EA334583EA14435C4084EA00077FEA87
:10075000040A8AEA024A8AEA010B87EA11488AEA0D
:10076000374A80EA060181EA1A418AEA030A04EA62
:100770000A00454088EA040707EA0B0041408AEA7C
:100780000B0608EA060084EA34428AEA3A4602EA9C
:10079000060358404540414087EA37438BEA3B40D7
:1007A00003EA000985EA090582EA0309464006EAE8
:1007B0000906714085EA010005EA3546464006EA29
:1007C000314181EA304181EA364606EA304686EA1E
:1007D000354634400F4086EA010508EA050886EAF6
:1007E0003640024088EA020881EA314213405C4008
:1007F00080EA020309EA030987EA0907674088EAF1
:10080000040806EA0A0601EA0B018AEA0B042540FD
:100810008AEA3A44204045408BEA3B4B02EA0B020D
:10082000564084EA0B04234059406E40694087EAF1
:10083000364080EA384080EA060380EA104481EAC4
:10084000134585EA344585EA17427D4082EA354101
:1008500080EA05403CE9F0006040694072407B401E
:10086000BEF1010E3FF6CFAE20BCFFF7C9FC2860F9
:100870006960AA60EB60BDE8F08F00BFFFF76ABE59
:1008800030B44FF0000310F8014B11F8015B013A4E
:1008900084EA050443EA0403F5D1A3F101034FEA16
:1008A000D37030BC704700BF4FF0000310F8012B2D
:1008B000013943EA0203F9D1A3F101034FEAD370EE
:1008C000704700BF30B411F8014B12F8015B6C4067
:1008D00000F8014B013BF6D130BC70472DE9F04FD9
:1008E00090E8F00F00F140004FF0040E59E0F0B432
:1008F000826BC36B04680525242687593C444FEA64
:10090000724787EAF24787EA92273C4442684FEAF7
:10091000F21787EAB24787EAD2073C4440F8044B13
:10092000032D08BF6FF01B0687593A444FEA7347FF
:1009300087EAF34787EA93273A4443684FEAF31775
:1009400087EAB34787EAD3073A4440F8042B87592C
:100950003B444FEA744787EAF44787EA94273B44CD
:1009600044684FEAF41787EAB44787EAD4073B4460
:1009700040F8043B013DC0D1A0F13C00076A3C4473
:100980004FEA724787EAF24787EA92273C440268B7
:100990004FEAF21787EAB24787EAD2073C44C463BA
:1009A000F0BC4FF0020288EA781C8CEAF84C0BEBA2
:1009B000BC1C8AEA090303EA080383EA0A039C448D
:1009C00050F8043B9C4451F8043B9C44674444EA7F
:1009D000050B0BEA060B04EA05034BEA030BE344A1
:1009E00084EAF42383EA34530BEBB30B87EA771CD6
:1009F0008CEAF74C0AEBBC1C89EA080303EA0703FC
:100A000083EA09039C4450F8043B9C4451F8043B9E
:100A10009C4466444BEA040A0AEA050A0BEA04030A
:100A20004AEA030AE2448BEAFB2383EA3B530AEBDC
:100A3000B30A86EA761C8CEAF64C09EBBC1C88EA01
:100A4000070303EA060383EA08039C4450F8043BC7
:100A50009C4451F8043B9C4465444AEA0B0909EA6A
:100A600004090AEA0B0349EA0309E1448AEAFA2382
:100A700083EA3A5309EBB30985EA751C8CEAF54C15
:100A800008EBBC1C87EA060303EA050383EA0703B5
:100A90009C4450F8043B9C4451F8043B9C446444FF
:100AA00049EA0A0808EA0B0809EA0A0348EA0308BF
:100AB000E04489EAF92383EA395308EBB30884EA6E
:100AC000741C8CEAF44C07EBBC1C86EA050303EAB1
:100AD000040383EA06039C4450F8043B9C4451F809
:100AE000043B9C44E34448EA090707EA0A0708EA8A
:100AF000090347EA0307674488EAF82383EA38537F
:100B000007EBB3078BEA7B1C8CEAFB4C06EBBC1CA7
:100B100085EA040303EA0B0383EA05039C4450F8C7
:100B2000043B9C4451F8043B9C44E24447EA0806D9
:100B300006EA090607EA080346EA0306664487EA66
:100B4000F72383EA375306EBB3068AEA7A1C8CEA6A
:100B5000FA4C05EBBC1C84EA0B0303EA0A0383EAA4
:100B600004039C4450F8043B9C4451F8043B9C44CF
:100B7000E14446EA070505EA080506EA070345EAEF
:100B80000305654486EAF62383EA365305EBB3058D
:100B900089EA791C8CEAF94C04EBBC1C8BEA0A0349
:100BA00003EA090383EA0B039C4450F8043B9C448A
:100BB00051F8043B9C44E04445EA060404EA070477
:100BC00005EA060344EA0304644485EAF52383EA5C
:100BD000355304EBB304013A7FF4E5AEA0F14000D5
:100BE000BEF1010E7FF483AEA0F1400C9CE80F0033
:100BF000001949199219DB19ACE80F009CE80F00A5
:100C00004044494452445B44ACE80F00BDE8F08FD7
:100C100053B94AB9002908BF00281CBF4FF0FF3163
:100C20004FF0FF3000F00CB8ADF1080C6DE904CEC8
:100C300000F022F8DDF804E0DDE9022304B070479B
:100C4000704700BF10F8012B11F8013B012A28BFA3
:100C50009A42F7D0D01A7047034611F8012B03F8D7
:100C6000012B002AF9D17047034613F8012B002A03
:100C7000FBD1181A013870472DE9F04786468C469B
:100C80000846089E154674461946002B40F0C18060
:100C90008542B2FA82F245D94AB1C2F1200300FA84
:100CA00002FC954094402EFA03F343EA0C0C4FEA01
:100CB000154EA8B2230CBCFBFEF80EFB18CC08FBAB
:100CC00000F943EA0C43994528D9EB1808F1FF379E
:100CD00004D2994502D9A8F102072B44A3EB0903DA
:100CE000A4B2B3FBFEFC0EFB1C330CFB00F044EA89
:100CF0000344A04214D92C190CF1FF3304D2A042B2
:100D000002D9ACF102032C44241A43EA07401EB175
:100D1000D440002334607360BDE8F0874746DDE7C8
:100D20006346F1E792BB431B01214FEA154EAFB278
:100D3000200CB3FBFEFC0EFB1C330CFB07F840EA57
:100D40000343984561D9EB180CF1FF3004D2984564
:100D500002D9ACF102002B44A3EB0803A4B2B3FB0D
:100D6000FEFC0EFB1C330CFB07F744EA0344A742CE
:100D70004DD92C190CF1FF3304D2A74202D9ACF1A2
:100D800002032C44E41B43EA0040C0E7C2F1200305
:100D90009540944020FA03F12EFA03F34FEA154EE2
:100DA0009040AFB20343B1FBFEFC0EFB1C10190CCC
:100DB0000CFB07F841EA0041884522D969180CF17B
:100DC000FF3004D2884502D9ACF102002944A1EBDE
:100DD00008019BB2B1FBFEFC0EFB1C110CFB07F7DC
:100DE00043EA01439F420ED9EB180CF1FF3104D2C4
:100DF0009F4202D9ACF102012B44DB1B41EA0041C6
:100E000093E76046E3E76146F7E76046A4E7634699
:100E1000B8E7834206D916B9002108467CE7C6E93F
:100E200000E0F9E7B3FA83F78FB9834201D3724543
:100E300008D8BEEB020460EB030301209C461EB9F8
:100E4000002169E73846FAE7C6E9004CF8E7C7F140
:100E5000200CBB400EFA07F522FA0CF42EFA0CF126
:100E6000BA401C4320FA0CF3B8404FEA144901433E
:100E70001FFA84FEB3FBF9F809FB18300B0C08FBD2
:100E80000EFA43EA00439A4540D9E31808F1FF30CF
:100E900004D29A4502D9A8F102002344A3EB0A0325
:100EA00089B2B3FBF9F809FB183308FB0EFE41EADF
:100EB00003418E452CD9611808F1FF3304D28E45C9
:100EC00002D9A8F10203214443EA0040A1EB0E013C
:100ED000A0FB02984145CE46434602D306D14D457C
:100EE00004D20138B9EB020E68EB0403002EA7D040
:100EF000B5EB0E0261EB030101FA0CFC22FA07F3D9
:100F0000F9404CEA0303C6E9003199E74046C5E7DA
:100F10004346D9E738B50446C8070D460ED5E10764
:100F20000CD5164813F0F9FA154A16481368591CDF
:100F30000629A8BF0021116013F0EFFAAA0707D510
:100F4000A30705D5104813F0E8FA02220C4B1A60EB
:100F5000680707D5610705D50C4813F0DEFA0322B0
:100F6000074B1A602A0707D5230705D5084813F051
:100F7000D4FA0422024B1A6038BD00BF90A00100D1
:100F800028160020A2A00100C2A00100D4A00100E8
:100F9000E6A0010008B5044813F0BFFABDE8084018
:100FA000012015F0CFBF00BFF8A0010008B521B1A6
:100FB000BDE80840054813F0B0BA054813F0ADFA93
:100FC000BDE80840012015F0BABF00BF12A1010022
:100FD0002EA10100012307B50A49009302220A4B02
:100FE0000A4805F063FB014628B1094803B05DF8E3
:100FF00004EB13F092BA074803B05DF804EB13F06A
:101000008CBA00BF8096010078960100909601008E
:1010100039A101005FA1010007B500F00DF928B169
:101020000E4803B05DF804EB13F077BA684600F0A1
:1010300031F9002000F0E0F8BDF8000000F0DCF825
:10104000BDF8020000F0D8F8BDF8040000F0D4F8B4
:1010500000214FF4804017F0C0F9E7E781A10100BB
:1010600008B5044813F059FABDE8084002480DF0ED
:1010700057B900BF9CA101001816002010B503212C
:10108000234A244814F067F80AF026FC034638B1D6
:10109000214A01211F4814F067F84FF0FF3010BDBE
:1010A0001E480AF049FC044628B904F0A1FC034696
:1010B00050B11B4AEDE701461A4813F02EFA2146BB
:1010C000194813F02AFAE8E7184806F0B5F9184865
:1010D00000F088F8044610B101461648F1E70321F4
:1010E000154A0C4814F037F81448154917F022F83F
:1010F00012480DF015F9013404F0010100200AF046
:10110000A9FC00214FF4004017F067F9F3E700BF96
:10111000E5A101001495010006A20100150F0000D1
:101120005DA2010021A2010040A2010020020020D6
:10113000380200207DA201009AA2010018160020AA
:10114000D50F00008B1E59425941014B1970704751
:10115000893100204B1E59425941014B197070478B
:101160008A31002008B5012BBDF808100CD171B9E7
:101170000A4B1B680BB9012008BD1078012809D85B
:1011800000F001009847F6E76FF00C00F4E76FF00D
:101190000600F1E76FF01200EEE700BF2C1600200A
:1011A0002DE9FF411F460D4B054658680C46164673
:1011B00080B1D1F80C808047094B3246187001236A
:1011C000CDE90183BDF828302146009328463B46EF
:1011D00015F0F1FB04B0BDE8F08100BF2C16002033
:1011E0008831002020B1034B02681A6042685A60BF
:1011F000002070472C16002000B50D4B89B01B78DD
:10120000019093B10021182202A817F04AFE094B61
:101210000020039301AB0493042302A9ADF814301A
:1012200008F070FB09B05DF804FB6FF00C00F9E703
:101230008A3100203097010038B50025124C54F84F
:10124000060C16F07AFD28B9104813F066F94FF035
:10125000FF3038BD14F8013C63B154F8060C8368C4
:1012600021461B689847021E07DA2946084813F0F2
:1012700054F9ECE76FF08502F7E70135032D04F12F
:101280001404DCD10020E4E75E97010056A30100BE
:1012900077A301002DE9F04F142200268BB00746FA
:1012A00031460DEB020017F0FCFD0DF10E03079324
:1012B0000223B146B0463546B2464FF0140B334CCC
:1012C0000893637953B10122237902FA03F3069359
:1012D000237C8DF82430637C8DF82530206883686A
:1012E00005A95B689847011E10DA294813F015F923
:1012F0000135032D04F11404E3D13846A7F800901A
:101300007E80A7F804800BB0BDE8F08F45B9D146C8
:101310006279BDF90E3042B91E4813F0FEF8E7E7D6
:10132000012D0CBF5646D046F2E7E2791748042A51
:1013300008BF22680BFB05000ABF9268E18911898A
:10134000807A5943227C800644BF02F1FF32D2B238
:101350000491A07904A90093019208F03DFC0028B3
:10136000009B08D1049B019A13419BB22DB9994669
:1013700001251434A5E7CFDBF7E7012D03D11E4685
:10138000022514349DE79846B7E700BF589701003F
:1013900099A30100AEA301002DE9F04F91B0009395
:1013A00002F004030293C2F3C2030133840705462B
:1013B0000E46DDF868800392059340F0BB81041D62
:1013C00030B1072909D86FF01B0011B0BDE8F08FCC
:1013D00001F007063444C6F10806009B4FF00009EF
:1013E0004FF0040A591E4FF0FF334F460193CB468E
:1013F0005346CDF810900DB1009A22600598002850
:1014000000F3E8809848009A824203D397488242CA
:10141000C0F0E080039AA4EB050E92074FEA9E000D
:1014200000F103810F2F00F2B180002D00F0058143
:1014300007F140020DEB020C019A0CF8200C0CF89D
:10144000102C049801300490E7E07A285DD84B28EE
:101450000ED8472859D829282DD8252852D054D815
:1014600020287AD02338D0F1000B4BEB000B74E02E
:101470004C382E2849D8DFE800F0704848484848E2
:101480004848484848484B484848484848484859C8
:10149000484B4B595959704B6D487048184B184878
:1014A00048827F4B48484B487F0000204FF0000B9C
:1014B0004FF0040A38E001222A38C0B202FA00F0E4
:1014C00010EA0E0F49D110F0625C2FD110EA020B26
:1014D00043D06046013C5444B4FBFAF40AFB04F4E4
:1014E000002D61D0A3EB050CA444B4453FF66BAFCF
:1014F000002868D1042B47D158F8043B236004230B
:1015000004342AE0019A013A01924FF0000B24E0E2
:1015100011F8010C6C2834D1002011F8023C8346EC
:101520006C2BC5D14FF0080A5346D3E708F10708E2
:1015300028F00708073424F00704F8E802AB35B1B7
:1015400006982044B0423FF63EAFC4E900AB4FF0EE
:10155000000B08344FF0080A534611F8010F002819
:1015600078D0BBF1000F7FF470AF2528F5D14FF094
:10157000010B019B013301934FF0040AECE758463D
:1015800094E700208346A5E7082B02D06FF01500F2
:101590001BE708F1070828F00708F8E80223C4E968
:1015A000002308230834D8E768B9042B02D108F1D6
:1015B0000408A4E7082BE9D108F1070828F0070878
:1015C00008F10808EDE7059A013A059258F8042B4E
:1015D000009210E7039A900720D54FF0010CA4EB7E
:1015E000050E4FEA9E00BEF5007FCFD20F2FCDD85B
:1015F000F5B107F140020DEB020E019AC0B20EF8F0
:10160000200C0EF8102CBCF1000F3FF41AAF60F064
:101610007F000EF8200C09F101090137C5F108021D
:101620004FF6DA7E0434069297E74FF0000CDAE7C3
:10163000BCF1000F01D00136EFE702980236002816
:10164000EBD10098CDE90631FFF70EFBDDE906315D
:101650000644E2E7631BB3F5806F97D245B9A6F164
:101660000804E018B1E600BF0090010054CB01006F
:10167000029A9B0828602B709DF81030C2B1EB7065
:1016800085F80290B9F1000F05D0002208A8C5F135
:10169000010C97420ED14FF0000AC5F101030DF184
:1016A000200801930DF1300B574512D1601B8CE6D9
:1016B0006B70E5E710F8013B190608D50CEB040E3A
:1016C000B64503F07F033FF67EAE04F8013B0132DE
:1016D000DFE7B9F1000F03D098F90020002A17DBEB
:1016E000029BD3B11AF80B2004F8012B0022019BB6
:1016F00018191044B0423FF666AE98F80000009901
:1017000004F8010B2046039217F0A4FB039A14443B
:101710000AF1010A08F10108C6E798F8002055F817
:1017200022300093029B009845F82230FFF79CFA84
:10173000421CDCE76FF00D0047E600BF2DE9F04FDB
:1017400097B000AFD7F880B03B62CBF3C00304463C
:10175000894690F802A0FA62BB6141B945780078E9
:101760000AEB800020444D4517D8A0EB0409E3782C
:10177000FB61BAF1000F02D01BF0010F16D1FB691B
:1017800053BBFB6A1BB1494620463A6A98474D460F
:1017900028465C37BD46BDE8F08F461C3046FFF753
:1017A00063FA0130304409F10109DCE7626823780B
:1017B0007A62FA6A9900796104EB8301002A40F0A9
:1017C00001810E464FF000084D4601EB0A094E45D7
:1017D0004CD101EB0A0610E01BF0020FD1D02378A8
:1017E0009A007A61626804EB83017A62FA6A002ADD
:1017F00077D14D46904601EB0A061BF0050F0CBF52
:1018000002230123FB62FB6906EB430A0BF0020390
:10181000BB625645BCD016F8021B16F8013C54F8C2
:101820002390994B994502D3984B994536D3BB6980
:10183000002B40D0786A12F047FE00283BD0E946E2
:101840008AB06A46924B53617B6AC2E906314FF413
:10185000007313848F4B42F8103F00234FF4125152
:101860008D4801F0ABF8023DCD46D2E716F8013BBA
:10187000F96254F82300FFF7F7F9D7F88430F96AD2
:1018800001304BB1D7F8883098453EBFD7F8843047
:1018900023F8180008F10108054498E7BB6923B153
:1018A000786A12F011FE0028C9D11BF0010F05D192
:1018B000FB6AED1AADE7BB6A002BAAD04846FFF7DA
:1018C000D3F9D7F8843053B1D7F8883098453FBF63
:1018D000D7F88420431C22F8183008F10108054489
:1018E00097E7BAF1000F73D01BF0040673D0D0460F
:1018F000002607F1480052463B61B96217F0AAFA88
:10190000B96A3B6901EB0A02BA62FA69F9695200E5
:10191000FA60BA6A02EB41023A610BF00202BA6065
:101920003A69B96A8A4258D162781BF0020F18BF2F
:1019300000217A6208BF4FEA5801B2181BF0010F6C
:10194000D2B240F09F801BF0040F14BF404600202D
:10195000BB616270A070E17020463A6A7969FB6AE7
:101960009847051EFFF614AFBB69414623707B6A9A
:101970003A6A6370FB6984F802A0E37007F14800DB
:10198000FB6A9847B0F10008C0F2BA807B69A9EB06
:101990000A01C91AFB683A6AC91AD7E90A039847C3
:1019A0000028C0F2AF804FF0000BA84408EB000500
:1019B00007F1380AB34571D300213A6A0846FB6A39
:1019C0009847E5E656464FF0000807F1380092E7E1
:1019D0005646D04696E7B04694E7BA6A12F8021B1C
:1019E00012F8015CBA6254F82500274A904202D3EB
:1019F000264A90421ED3BA6932B1786A7B6012F0EF
:101A000063FD7B6800288BD1BA6802BB08F128020D
:101A100007F1300C08F10100944407F1580208F175
:101A2000020852FA80F00CF8101C5FFA88F800F8EF
:101A3000105C75E7BA693AB1786A7B6012F044FDD0
:101A40007B6800287FF46CAF1BF0010F09D006F112
:101A5000280207F13000711C161806F8205CCEB27F
:101A60005EE71BF0040F3FF45BAF08F1280207F1BB
:101A7000300008F1010102EB000808F8105C5FFA81
:101A800081F84DE7002063E70090010054CB01008E
:101A9000CCA30100040000018C9501001BF80A3062
:101AA00054F8239087F83730D7F884302BB3D7F821
:101AB00088309B4521D2D7F8843033F81B80012130
:101AC0003A6AFB6A07F13700984700281ADB054499
:101AD000B8F1000F06D14846FFF7C6F800F101083B
:101AE0001FFA88F8414648463A6AFB6A9847002838
:101AF00008DB05440BF1010B5CE74FF00008DEE763
:101B0000454645E6054643E6014B1860704700BF71
:101B10008802002080B505460E46174698460CF010
:101B2000E7FF034617F062FA0446DFF818904246D2
:101B300049F8003039463046A84754F8090001F00A
:101B400035FE00BF080000002DE9F047058B044674
:101B50002807904611D4022905F0070540F0CC80F3
:101B6000204612F060FF78B10138218B042811D88B
:101B7000DFE800F0C2106D85950001290CBF45F02B
:101B8000100545F02005258388F31188BFF36F8F7A
:101B9000BDE8F08701F0070AAA4500F0A5800027FC
:101BA000B9463E46A368002B00F0BC8041F0080116
:101BB000218388F31188BFF36F8FA168002900F09B
:101BC000BA800D68002900F0B680334652462046A0
:101BD000D1F80480C047002D76D02B6829461D46D9
:101BE000F0E701F007035A1F012A1BD8002221F059
:101BF0000701062B276889B2C4E9002209D13B46B8
:101C000003E0628B013262831B68002BF9D141F043
:101C100002012046218312F006FF00287AD041F00D
:101C2000200176E0042B0AD121F0070189B2204679
:101C3000218312F0F8FE10B141F020012183218BA5
:101C400001F0070AAA454FD00027B946AAE7236941
:101C500021F0070141F00601062DD3F80090218301
:101C60002DD1B9F1000F3FD041F00801218388F355
:101C70001188BFF36F8F20463949C84729E021F00A
:101C80000701236941F0040189B2042DD3F80490BF
:101C90002183E6D000274FF0040A3E4682E721F078
:101CA0000701236941F0050189B2052DD3F8089099
:101CB0002183D6D000274FF0050A3E4672E7002761
:101CC0004FF0060A3E466DE72B4687E7B9F1000F55
:101CD000D1D1EFF31188202383F31288BFF36F8FE4
:101CE000238B23F008032383258BEA062ED525F0CA
:101CF0001003238305F007056669218B002EBFF6CC
:101D000070AF00232768C4E9003321F0070141F0D8
:101D100001012183218B4FF0000901F0070AAA4538
:101D20007FF440AF002F9CD041F00801218388F35D
:101D30001188BFF36F8F002FC8D03D6839463346F6
:101D40005246204612F09BFE2F46F4E7AB067FF585
:101D50001BAF25F02003238305F0070500E700BF34
:101D6000AB4A010010B530B90B480C4912F066FFC0
:101D70006FF0150010BD836833B90748084912F0A9
:101D80005DFF6FF00400F5E71B6813B1BDE810407C
:101D900018471846EEE700BFA495010080A4010093
:101DA00091A4010010B530B90B480C4912F046FF60
:101DB0006FF0150010BD836833B90748084912F069
:101DC0003DFF6FF00400F5E75B6813B1BDE810401C
:101DD00018471846EEE700BFA495010080A4010053
:101DE00091A4010070B508B101B132B90B480C499A
:101DF00012F024FF6FF0150070BD84680CB1E56827
:101E000035B90648074912F019FF6FF00400F3E7EF
:101E100041F8040BE368BDE870401847A495010041
:101E2000AFA4010091A4010010B5044630B91048D8
:101E3000104912F003FF6FF0150010BD006830B9B3
:101E40000B480D4912F0FAFE6FF00100F5E78368C8
:101E50000BB11B6933B90648084912F0EFFE6FF069
:101E60000400EAE7616898470028E6D12060E4E7CB
:101E7000A4950100DBA40100ECA4010091A40100E1
:101E800070B51346044630B91048114912F0D6FE19
:101E90006FF0150070BD006830B90C480D4912F0A4
:101EA000CDFE6FF00100F5E782680AB1956835B99B
:101EB0000648094912F0C2FE6FF00400EAE70A463C
:101EC000AC466168BDE87040604700BFA495010062
:101ED000DBA40100ECA4010091A40100034A1368F3
:101EE0000BB9526813600020704700BF8C020020BD
:101EF00030B50C460E4985B00291D0F8D411054694
:101F0000CDE9003100F1F0014FF0FF3320460BF036
:101F1000B9FA50B9012384F86C30D5F8D03123B127
:101F2000204605B0BDE83040184705B030BD00BFC1
:101F3000354D010038B50C461146054612F0FCFE41
:101F4000034638B92846044912F0F6FE034600203D
:101F5000236038BD0120FBE704CA01002DE9F04FE2
:101F6000012381460569466887B005F55D77D7E8A6
:101F7000EF2F002A03D1C7E8E13F0029F7D10CBFBA
:101F80001A46002240F0B080B368B16A05F5F878CF
:101F90001C1F104612F057FF84426ED8013A00F021
:101FA0009D80B2FA82F24FF00044D440726820461D
:101FB000073222F00302C5F83C22B16A12F043FF57
:101FC000C5F84002B36A40466343033323F003037A
:101FD00002EB4302230103EB4403093323F0030321
:101FE00003EBC403C5F834221A440832C5F8302282
:101FF0007368C5F83842C5F82C323D4BC5E9AD636E
:10200000316800F0E5F90446002834D1D9F810B061
:10201000D9F804A0D9F800300BF534790590049371
:102020004846DAE90734012B08BF103C16F0C9F81E
:10203000DAF824002F4904AB01EB80214FF48062D1
:102040004846009323460CF071F92B490BF530708C
:1020500016F070F8DAE9050183685C684CB15B46FC
:10206000264AA047044630B9DAE9050183681B69AE
:102070002BB96FF05704002129E0013289E70122D2
:10208000984704460028F6D11D4B2846C5F8D031A4
:102090001C4BC5F8D4311C4B0393D5F84032029346
:1020A000D5F83C32CDE9008305F51173B26AD5F855
:1020B000701300F055F904460028DCD105F1F0005A
:1020C0000BF086FA0028C5F878030ADB02213846AF
:1020D00012F066FE204607B0BDE8F08F6FF00B04EB
:1020E000C9E76FF01504C6E76FF07704F2E700BFA9
:1020F0008B4D010038380020714D0100654D010005
:102100000D2100001D4F0100D14D010013B5044603
:1021100040B100230122CDE90032074BD0E909127A
:102120000BF084F9236F1B6823B1606F02B0BDE828
:102130001040184702B010BD04CA010013B5044690
:102140000846216901F55D71D1E8AF1F022910D160
:1021500093B1A0B10121CDE900311346D0E90912B4
:102160000BF064F9074B984208BF6FF00B0002B008
:1021700010BD6FF00F00FAE76FF04C00F7E76FF05B
:102180000100F4E72EF8FFFF2DE9F34789461546D5
:10219000066906F55D73D3E8AF3F022B64D113687F
:1021A00023B96FF0150002B0BDE8F0871B78002B53
:1021B000F7D0D6F870A3BAF1000F36D106F5EC7758
:1021C0004FF0FF324FF0FF3338460BF0DDFD304665
:1021D0002A6801A9FFF7AEFE019C80461CB938466B
:1021E00012F0DCFDDDE705F108032367AB6984F835
:1021F0006CA06367646460B1384612F0CFFD21467D
:102200003046A36E2A68FFF773FE0020C9F800402D
:10221000C9E71F22296804F1480016F06CFE384611
:1022200084F8678012F0BAFDEFE73046104912F0EB
:1022300083FD04460028B4D0002705F10803036796
:10224000AB6980F86C70436740641F22296848308E
:1022500016F051FE22460121304684F8677000F0E6
:1022600061F80028D1D09CE76FF00F009BE700BF1A
:1022700004CA010010B50C46006900F55D73D3E88F
:10228000AF3F022B0FD189B10A4900F5307015F02C
:102290007DFF204615F07BFA78220021204616F0BB
:1022A00000FE002010BD6FF00F00FBE76FF0010093
:1022B000F8E700BF341600202DE9F04F05460E4622
:1022C00090460027D0F8C4A085B0AAF5BE74214678
:1022D0003046FEF7B7FCE0B9114BA4F1480B02936E
:1022E000DAF810303246CDE9008329464FF0FF334B
:1022F0005846AAF5E2790BF0C5F860B978230122B7
:1023000003FB079383F86C20DAF80C300BB15846C6
:102310009847783417B105B0BDE8F08F0127D6E7AC
:102320004B4F01001FB5144690B18AB1012912D15B
:102330000A4B00F1F0010293D0F8D43148320193F6
:102340004FF0FF33204600930BF09CF804B010BD13
:102350006FF01500FAE70020F8E700BF4B4F0100CF
:102360002DE9F04387B00E46DDE90E811446DDE924
:1023700010251F4630B329B3DFF850C000F1F00933
:10238000002D08BF65469EB9CDE9034400F5E2740F
:102390002046059615F093FC03ABCDE900432A4691
:1023A0003B46414648460BF08DF907B0BDE8F08347
:1023B000002241460E9248462A4607B0BDE8F04347
:1023C0000BF0D0BA6FF01500EFE700BFB9220000A4
:1023D000F0B504462B4A87B004AB0E4692E80300E2
:1023E00083E80300002C49D018460AF025FF054673
:1023F000B0B94FF0FF33E16C04F15407A163CDE9AC
:10240000010000933846236D04F1380214F071FE88
:10241000A06C12F0C9FDC4F8BC0020B96FF00B0528
:10242000284607B0F0BDA06C12F0BEFDC4F8C00095
:102430000028F3D0236CD4F8BC10C4F890300423E7
:10244000C4F89430C4F8AC300223E3620E4BB4F805
:102450004820C4F88C10616C236204F18C03C4F82A
:10246000A070A4F89820C4F8B870C4F8A810A4F814
:10247000B020C4F8A400A6612363D1E76FF015056E
:10248000CEE700BF10960100C09701002DE9F0478C
:10249000044607464FF00109DFF8508014B938466A
:1024A000BDE8F08794FAA4F5B5FA85F509FA05F3C5
:1024B0002E0108EB05156FEA030A24EA03042B7BBF
:1024C000002BEBD058F806301B694BB946447368B3
:1024D00004222846196807EA0A0712F0CDFDDDE755
:1024E000284698470028D9D1F0E700BFFC950100A5
:1024F00030B5002289B00F490F4816F041F800228C
:1025000000230024CDE906230E230C4DCDE903342E
:102510004FF440722846CDE90144094B0949009423
:102520000CF022F80849284615F0A6FE204609B00E
:1025300030BD00BF4D25000080100020F80B0020AA
:1025400061280000383C002011A5010001480BF073
:1025500015BD00BF4C0600202DE9F04780462148FC
:102560000F4612F06DFD0646002833D000252846A0
:10257000BDE8F087237B83B12368DB680BB120467D
:102580009847636883F8069023681B69D3B963682A
:1025900004222046196812F06FFD013610345445AC
:1025A000E8D3B8F1000FE2D0002DDFD02846FFF7C6
:1025B0006DFF0546002FF7D000214FF4A47015F0F1
:1025C0000CFFF1E7204698470028E0D009FA06F30F
:1025D0001D43E2E705464FF00109034CDFF80CA06C
:1025E000DDE700BF6C160020FC9501000C96010091
:1025F000014B53F8200070470098010008B50346CE
:1026000008462BB1044A136000F06EFC002008BDA0
:102610006FF01500FBE700BFB802002010B5044CB6
:10262000237813B903480BF0A9FC0123237010BDD4
:102630008B3100204C06002010B50446094812F0EA
:10264000FFFC3CB1084BD3E8EF1F0139C3E8E21FA0
:10265000002AF8D1054815F09FFFBDE81040044856
:102660000BF08CBC6416002068160020801000203F
:102670004C06002000200146034BD3E8EF0FC3E8CF
:10268000E21F002AF9D170476416002070B5FFF7E9
:10269000F1FF0546074C084EB44200D370BD636895
:1026A0005B792BB123685B6813B1294620469847B4
:1026B0001034F1E7FC9501000C96010010B5044CB4
:1026C0000449204612F048F8034B1C6010BD00BFBF
:1026D00014050020EC9701005C16002000230D4A31
:1026E00010B513700C4A4FF4004113600B4A0C48AC
:1026F0001360FFF783FFFFF7E1FF0A4B0A49184613
:102700008B4200D310BD1A1A5C681211013222717B
:102710001033F5E78C310020641600206816002085
:102720003D500100FC9501000C960100014600227D
:102730000023014812F031B814050020014812F0BE
:10274000CAB800BF14050020024B0146186812F0F9
:1027500016B900BF5C160020014812F04BB900BF4B
:102760001405002070B5274B1878002849D0FFF7D2
:10277000E5FF0546002841D1234B244C1B68002B64
:1027800019DD15F0B6FE4FF47A72A0FB020302FBCE
:102790000131C30B43EA4143D4E900209B1A40F2C4
:1027A000E9324FEAD13161EB0001934271F100014E
:1027B00001D3FFF76BFFD4E9003213F57A7342F1CE
:1027C0000002C4E90032BDE87040FFF7C5BF63688E
:1027D0005B7923B12368294620461B68984710344B
:1027E000B442F4D32846FFF7AFFF094BD3E8EF1FFD
:1027F0000139C3E8E21F002ABED0F7E7054C064EB8
:10280000EEE770BD8B3100206416002078100020A8
:1028100068160020FC9501000C96010070B50D4D66
:10282000297861B90120FFF797FE0B4C0B4EB4429B
:1028300006D3FFF797FF0028FBD101232B7070BD53
:1028400063685B791BB1236820469B689847103406
:10285000EDE700BF8C310020FC9501000C960100D3
:1028600000212DE9F0470846FFF776FE044658B3ED
:1028700040F267684FF0000916F0B8FB1B4B1C4A8A
:102880001B58136033B11B4B1B68092B02DD1A4820
:102890000BF074FB0025194FDFF85CA044B1204613
:1028A000FFF7F4FD044618B94FF0FF384FF0FF3939
:1028B000FFF758FF064628B9B5B942464B46504681
:1028C0000BF096FB3546E9E74FF0FF384FF0FF3944
:1028D000D2E72B689B691BB1002228461146984716
:1028E0001035BD42F5D3E8E7054DFAE708000000D2
:1028F00060160020681600204C0600200C9601008F
:10290000FC95010013B5184812F09AFB174B1B7881
:1029100073B1EFF31184202383F31288BFF36F8F19
:10292000FFF720FF84F31188BFF36F8F02B010BD53
:102930000F4B1B68002BF9D050B9002200230D4823
:10294000CDE900234FF4004200230CF0CDFBEDE76E
:102950000928EBD1074815F01FFE074802B0BDE873
:1029600010400BF00BBB00BF681600208C3100201C
:1029700060160020801000204C06002010B5064B89
:1029800004461B6898472146A060044811F084FF64
:10299000BDE81040FFF7B6BFB802002014050020C4
:1029A000044A054B9B1AB1EBD30F34BF52F83100E8
:1029B0000020704714950100FC9501002DE9F04FAF
:1029C0008FB0C1F34A2804AF0D469146B8607B60D2
:1029D0000C0DB8F1000F63D000264FF0040B4FF040
:1029E0000A0A07F11403C7F80C80C7E907667E627C
:1029F0000193CDF808B0CDF800A007F11C033246D2
:102A00004846F968FEF79AFEB0F5006F03461CD3FE
:102A10006C468AB0D9F8041004AB26481A46C3E9BC
:102A2000050140F2FF71D9614FF400711984224B06
:102A300042F8103F4FF4125133462048FFF7BEFFD3
:102A4000A5462C37BD46BDE8F08FC0F30A0804F157
:102A50001700184420F0070080083B60FFF766FE6F
:102A600068F35325044690B13B6800F11001C7E9B3
:102A7000083607F11403F961CDE900A3CDF808B0D9
:102A800048460F4AF96807F11C03FEF757FE68F342
:102A900053252A4620467B68B96812F00CFBD0E724
:102AA00004F1170020F007008008FFF73FFE0446FE
:102AB000EDE700BF26A5010004000001AC95010070
:102AC0008B5001002DE9F04F87B00446DDE9105A24
:102AD000DDE91279934698460391BFB13B465246D1
:102AE00010210020CDF80090CDF81490FEF754FC92
:102AF000B0F5006F06460AD340F2FF730221174A71
:102B0000174807B0BDE8F04F12F02EBB3E4605F166
:102B10001700304420F007008008FFF707FE04F09C
:102B200007040BF0070BE40044EA8B1444EA462444
:102B300044EA0554054640B13FB13B465246314652
:102B4000CDF800901030FEF727FC43462246284679
:102B5000039907B0BDE8F04F12F0ADBA65A50100CA
:102B6000AC950100406820B1034BC01A40F3CF0080
:102B700070474FF0FF307047149501000EB403B555
:102B800003AB53F8042B01460448019301F03CF9D0
:102B900002B05DF804EB03B0704700BFCB510100F9
:102BA000CA0605D48B064CBF02490349FFF7E6BFAE
:102BB000704700BF03CA010002CA01002DE9F04FAF
:102BC00089B09B46149B9DF84CA00693159B044628
:102BD0000593169B0D469046179E0493BAF1000F7D
:102BE00000F09D8006F48073079312F043FA06F01C
:102BF0000209024600283ED020469149FFF7BEFF59
:102C00000746B9F1000F08D016F0440F35D12A4617
:102C100020468C49FFF7B2FF074406F0010353B189
:102C2000894B204653F82A20884B8949002A08BF3F
:102C30001A46FFF7A3FF06F48073002B49D006F075
:102C40000803002B63D1B8F1000F66D0424620463E
:102C50008049FFF793FF0546069B3D44002B6DD14D
:102C6000049B002B73D1F30700F1E480314620462A
:102C7000FFF796FFD8E00746C3E7774B18680028B0
:102C8000CAD0764B4FF47A791B684FF03C0CB5FBF9
:102C9000F3F5B5FBF0F14FF4616300FB115509FB4F
:102CA00005F5B1FBF3F2B5FBF0FE03FB121100FBDF
:102CB0001E55B1FBFCF309FB05F5B5FBF0F50CFB6C
:102CC000131120460091CDE901E56549FFF756FF54
:102CD000A2E706F00803EBB1624B204653F82A2026
:102CE0006149FFF74BFF0546B8F1000F05D042469A
:102CF00020465849FFF742FF0544BBF1000FABD017
:102D00005A4620465949FFF739FF0544A4E74FF0DA
:102D1000000BE1E706F00805E6E745469CE7BBF156
:102D2000010F069B06D1002B64D1049B002B7BD0A6
:102D300000250CE0002BF8D04D485CE04D48069B88
:102D400022464D4911F08FFB049B002B68D0DFF821
:102D50002C81DFF82C91049F3146102F204628BF8C
:102D600010274FF0000BFFF71BFF5D4545DC059B6F
:102D7000494620461A78FFF701FF4FF0010B1BF080
:102D8000070F03D141462046FFF7F8FE5F453BD9C8
:102D9000059B4946204613F80B20FFF7EFFE0BF189
:102DA000010BBBF1100FEAD14FF0000B2046354963
:102DB000FFF7E4FE5A46059B20469A5CA2F12001EB
:102DC0005F2928BF2E223049FFF7D8FE0BF1010BF7
:102DD000BBF1100F1DD01BF0070F03D14146204659
:102DE000FFF7CCFE5F455A46E5D841462046FFF73F
:102DF000C5FEEBE71F485546A1E741462046FFF7D1
:102E0000BDFE0BF1010BB0E720462049FFF7B6FEEF
:102E1000C5E7059B3B440593049BDB1B04939AD1B8
:102E2000BAF1000F7FF41FAF204609B0BDE8F04FA4
:102E300012F0BEB92046054A0549FFF79FFE15E787
:102E4000A2A50100A6A50100109801009DA5010002
:102E5000A7B00100CBA50100741600207016002059
:102E6000AFA5010024980100CFA50100D5A5010060
:102E7000F9510100CB510100093E0000CEC901000B
:102E8000DAA50100E0A50100E2A50100CCC901001E
:102E900042F20F7373B58B4228BF0B460568044698
:102EA000052168460D4A10F0FFFD06466368284676
:102EB0000B225B680A4912F06DF963683246694675
:102EC00028465B6812F066F963681B2228465B6837
:102ED000044912F05FF902B070BD00BF76C1010075
:102EE00001A60100E5A5010000210123064A904248
:102EF00006D8064A01B901231360054B18607047D4
:102F0000012140085B00F2E740420F0070160020EC
:102F100074160020F8B50D460446064F4618B44214
:102F200001D12846F8BD14F8011BBB6801485B6855
:102F30009847F4E760910100014B0360002070475F
:102F40006C98010008B5044811F0E7FABDE80840A4
:102F5000024811F0E2BA00BF47A601007CA60100BA
:102F600001480EF07BB800BF6C98010038B50446EC
:102F700018B90F4B0F485B6898476168B1F5683F17
:102F800010D0B1F5680F0DD00B4DA9420AD011F445
:102F90006861206807D00146084814F048FF002304
:102FA0002360656038BD142215F07BFFF9E700BF90
:102FB00088040020AAA601002C5F5CA9A41B0020A5
:102FC00008B560B34368B3F5683F0ED0B3F5680F3A
:102FD00018D0144A934220D000684FF0FF324FF0CF
:102FE000FF330AF0D1FE58B115E001220368D3E89F
:102FF000EF1F002903D1C3E8E02F0028F7D10AD141
:10300000002008BD0368084A1B7803F5807352F856
:103010002330002BF4D00548F3E70548F1E76FF4BF
:10302000E040EEE72C5F5CA900000350E98FFFFF52
:10303000EA8FFFFF08B520B34368B3F5683F09D0B6
:10304000B3F5680F13D0114A93421DD000680AF0FF
:1030500013FF14E000220368D3E8EF1F012903D116
:10306000C3E8E02F0028F7D109D0094808BD0021A6
:103070000368084A1B7803F5807342F82310002088
:10308000F4E76FF4E040F1E70348EFE72C5F5CA959
:10309000E98FFFFF00000350EA8FFFFF10B50446E1
:1030A00018B91D4B1D485B6898476368B3F5683FC6
:1030B0002FD0B3F5680F2CD0194A934219D1236849
:1030C00003BB4FF0FF324FF0FF33214615480AF0A3
:1030D0002DFE08B923681BB90F4B13485B6898474E
:1030E00014220021206815F0DCFE4FF46863636051
:1030F00008E0B3F5683F0DD83A2B03D040F6BA622A
:103100009342DED1206814F0DCFE636843F03A039A
:10311000636010BD054AF3E788040020AAA60100F9
:103120002C5F5CA9A41B0020D0A601003A00003A45
:1031300008B5064940231422054814F06AFEBDE88C
:103140000840044904480EF04DB800BFA416002002
:10315000A41B002074980100889801002DE9F04715
:1031600006460C4600AF002936D0D1E90012E946E8
:103170008AB06D46A3684FF0050AA8461F48C5E906
:103180000723C5E9050148F810AF002342464FF474
:1031900021511B48FFF712FCD4E90312CD466369A5
:1031A000AD461848C5E90723C5E90501C5F810A0D3
:1031B000002342464FF421511148FFF7FFFBCD4653
:1031C000E3690121104A0E4811F0CEFFA3690121E5
:1031D0000E4A0B4811F0C8FF012E07D1EFF305830B
:1031E0000B4A31460648103B11F0BEFF21463046DF
:1031F0000AF0DEFBBD46BDE8F08700BFFDA601007A
:10320000E49501002CA701005BA701006AA701005B
:1032100098A7010030BFFFF7FDBF00BF2DE9F041C7
:1032200005460B4EDFF82C80324606EB0807CC1B18
:103230002046094915F00EFEA01942460021083C1F
:1032400015F02FFE6C6707F10800BDE8F08100BFA4
:1032500000000000040000000C960100054B5A69B4
:103260009B689A421FBF044A536843F080535360DF
:10327000704700BFD020002000ED00E070B52A4C60
:1032800006460D4629482A4912F03EF8A36ADB0695
:1032900047D52648274912F037F81120A36A1C07A2
:1032A00004D52248244912F02FF812201E4CA36A9C
:1032B000990712D521491D4812F026F8636BA26ABE
:1032C000120609D501211E4A184811F04DFF1EB102
:1032D000A36A23F08003A3621320134CA36ADE07C2
:1032E00004D51248174912F00FF81420A36A9C065F
:1032F00004D50E48144912F007F815200A4B9A6AB3
:10330000D10658BF9A6A9A6A920642BF5A6A22F454
:1033100000525A629A6A42F0FF029A6200232B70AE
:1033200070BD1020BAE700BF00ED00E0E495010099
:10333000ABA70100C1A70100F4A7010007A8010085
:103340001FA8010035A8010054A8010010B5244CA5
:103350002449254811F0D8FFA36A99013ED5224897
:10336000224911F0D1FF1E20A36ADA0104D51E48BC
:103370001F4911F0C9FF1F20194CA36ADB0204D5B5
:1033800019481C4911F0C0FF0220A36A1C0304D590
:103390001548194911F0B8FF2120114CA36A5903AF
:1033A00004D51148154911F0AFFF2220A36A9A03F2
:1033B00004D50D48124911F0A7FF2320084CA36A39
:1033C000DB0304D508480F4911F09EFF2420A36AAF
:1033D0006FEA03436FEA1343A36210BD1D20C3E7E6
:1033E00000ED00E083A80100E49501009BA8010026
:1033F000AEA80100C8A80100F2A8010010A90100B0
:1034000035A901004FA9010070B5294C06460D46AB
:103410002848294911F078FFA36AD9043CD52548EA
:10342000264911F071FF1720A36A1A0504D5214817
:10343000234911F069FF18201D4CA36A9B0512D582
:103440001C48204911F060FFA36BA26A100409D543
:1034500001211D4A174811F087FE1EB1A36A23F40B
:103460000043A3621920124CA36A590504D51148E0
:10347000164911F049FF1A20A36ADA050ED50D4846
:10348000134911F041FF1B20094A936A43F47F431B
:10349000936200232B7070BD1620C5E7A36A9B04BE
:1034A000F2D504480B4911F02FFF1C20ECE700BFB8
:1034B00000ED00E0E49501007AA9010090A9010067
:1034C000F4A70100A1A90100BAA90100CFA9010038
:1034D000EAA9010054A801002DE9F0418AB0654B2A
:1034E0000446D3F80480002600AFC8F3080586F32D
:1034F0001188BFF36F8F02F07F43B3F17F4F07D185
:1035000002F00C03082B12D15B495C4811F0FCFE61
:10351000002634460023FB71EB1E092B00F2898044
:10352000DFE803F00A7F827B87878787878510071C
:103530004CBF0C460126EDE75149504811F0E4FE1E
:1035400000234C4DFB71EB6A9A0705D54D494B485A
:1035500011F0DAFE002331E0EB6A002B01DA4A4970
:10356000F5E7EB6A5B00F5D54849444811F0CCFE1D
:103570006B69A26943F480736B61BFF34F8FBFF334
:103580006F8F6B6932F8022C23F480736B61BFF389
:103590004F8FBFF36F8F4DF602739A4207D0AB6A1D
:1035A000DBB26BB30120F91DFFF768FE37E023683B
:1035B0000121374A314811F0D7FD2368FA79DAB989
:1035C00007F1080504F1200C2A46206861680834D8
:1035D00003C264451546F7D17A6A002E45D0C2F37E
:1035E000080121B96FEA52226FEA42227A62184634
:1035F00007F10801FFF7B2FD2837BD46BDE8F081AD
:10360000AB6A13F47F4F04D00120F91DFFF7FCFED5
:1036100005E0AB6AB3F5803F9CD3FFF797FE034606
:10362000CCE70020F91DBFE70020F91DEEE719499E
:103630008DE7194A18F4F87FE8468AB0174B18BF8F
:1036400013466A461649103DC2E905134FF400734C
:103650001384144BD56142F8103F00234FF41151ED
:103660000648FFF7ABF9C54674E722F4FF7222F073
:103670000102BBE700ED00E030AA0100E495010083
:103680005BAA010072AA010093AA0100A1AA01008D
:10369000C0AA0100DCAA010017AA010002AA0100C9
:1036A00000AB010004000001064B5A6942F0100211
:1036B0005A615A6942F480625A615A6922F00802DA
:1036C0005A61704700ED00E0EFF30880EFF30981E5
:1036D00001B57246FFF700FF01BD00BF002080F377
:1036E0001488BFF36F8F002080F30A8880F30B8863
:1036F0000F4880F3088808F0E5F900200D490860BC
:10370000BFF34F8F00F02CF8202080F311880A4877
:103710004FF40061401880F30988EFF31480022110
:10372000084380F31488BFF36F8F00F0EBF80000BC
:10373000E05C002094ED00E0A04B00200023184640
:103740000649D1F89020C2F30722934200DB70476C
:10375000C1F89830C1F8A0000133F6E700ED00E0B1
:1037600010B572B6002484F31388FFF7E7FF2346F1
:103770004FF0FF300C4A03F120010133102B42F8C7
:103780002100F8D100234FF0FF30074A03F1600118
:103790000133102B42F82100F8D162B6BFF34F8FEE
:1037A000BFF36F8F10BD00BF00E100E0084B9B68C6
:1037B00083420BD1EFF3058343B1064B5A6842F0C5
:1037C00080525A605A6A22F400425A620BF096B94B
:1037D000D020002000ED00E014498A684FF030004E
:1037E0001044EFF3098C80E8F01F202080F312884A
:1037F000BFF36F8F0E4F4FF000664A698A603E60DC
:10380000506F0C4C2060906F0023936780F31188F9
:1038100002F1300090E8F01F8CF3098802F10000FB
:1038200004B511F079FDBDE804407047D0200020B8
:1038300004ED00E0C01B00201EF0040F0CBFEFF3EE
:103840000880EFF30980816911F8021C0229FFD07A
:1038500001B5724611F04DFD01BD00BF40B2002818
:1038600007DB01234109034A00F01F00834042F8AF
:103870002130704700E100E040B200280CDB01225B
:103880000649430900F01F008240203341F82320FD
:10389000BFF34F8FBFF36F8F704700BF00E100E0B1
:1038A000054B420953F82220012300F01F0003FAC0
:1038B00000F01040704700BF00E100E040B2002877
:1038C00001F10101ACBF00F16040064B4FEA41112C
:1038D000C9B2ABBF00F5614000F00F0080F80013E3
:1038E0001954704714ED00E0044B054A23F07F03A0
:1038F0009360BFF34F8FBFF36F8F704700000000DE
:1039000000ED00E008B5FFF7EFFF074AD2F8883076
:1039100023F47003C2F888300AF038F90BF022FA69
:1039200000F046F80AF072F900ED00E042F8203CA1
:10393000009B0B4942F81C3C019B21F0010142F81D
:10394000183C029B42F8081C42F8143C4FF080736C
:1039500042F8043C0023203A02658367704700BFA9
:10396000151B000000B50B4B15469860426F0A4BC3
:103970000E461A60436E83F30B882C4686F3098843
:103980000020064B98472046002100220023044CCB
:10399000204700BFD0200020C01B00202153010081
:1039A000151B00001022014B1A61704700ED00E06A
:1039B000002320210348C2180133452B82F800134D
:1039C000F9D1704700E100E008B5EFF30583064A3E
:1039D000103B02EBC30152F8330049688847BDE849
:1039E0000840FFF73BBC00BF009201001FB5094C27
:1039F000094A23460121094800F012F900230393E4
:103A0000074B0121E41A01A80193029400F012F976
:103A100004B010BD000007200000002098980100AD
:103A2000F807002010B50C7A0B6804F01F0223F091
:103A30001F031A43CB68640923F01F03054943EAB7
:103A4000440343F00103C1F89800C1F89C20C1F879
:103A5000A03010BD00ED00E010B50A4BD3F8903057
:103A6000C3F30723013B984208D901210346064AC4
:103A7000064811F079FB6FF0150010BDFFF7D2FF7B
:103A8000FBE700BF00ED00E017AB0100CC950100A3
:103A90002DE9F04F8946144606464FF00008514D77
:103AA00085B0C84527DAD6F804A0BAF1000F44D093
:103AB000BAF11F0F17D91AF01F0F14D1D6F800B0A2
:103AC0001BF01F0F0FD1584611F066FC07460AEB9A
:103AD0000B00013811F060FC874210D06FF0150721
:103AE000414A3B4601E04346404A0121404811F02B
:103AF0003BFB6FF01504204605B0BDE8F08F17F1D1
:103B0000160FEDD0BC42EBDDC5F89870D5F89C10CF
:103B1000C5F89870D5F8A03021F01F0143F01F0BB5
:103B2000D6E900321A44994202F1FF3A1DD1D34539
:103B300007D13146F8B211F038FC08F101080C3613
:103B4000AFE73146C5F89870D5F89C3022F01F02D7
:103B500003F01F031343C5F89C30E0B211F025FCBD
:103B600010F1160FC5D0441CE7E7C5F89870D5F8DA
:103B7000A020013B23F01F0302F01F021343D34593
:103B80003146E0B2C5F8A030E8D011F00EFC10F1DB
:103B9000160FAED0C5F89870D5F89C209DF8083067
:103BA0000BF1FF3B62F304038DF80830D5F8A03029
:103BB0009DF808205B0863F347128DF80820D6E9CA
:103BC00000321344009323F01F035B44A3EB0A036A
:103BD000013023F01F036946C0B20393FFF73CFF97
:103BE000BEE700BF00ED00E060AB01003DAB0100AF
:103BF000CC9501000522044BC3F89420BFF34F8FEE
:103C0000BFF36F8F704700BF00ED00E0BFF35F8F21
:103C10000022024BC3F89420704700BF00ED00E083
:103C200010B5034C2278FFF733FF207010BD00BFA2
:103C30008E3100202DE9F74F294D8A4606464FF078
:103C40000008AB46274FD0451BDAD6F80490B9F1EF
:103C5000000F3FD031680846019111F09DFB01999A
:103C6000044609EB0100013811F096FB84424FF045
:103C700014021D4B08D002FB08F36FF015024BF83D
:103C8000032003B0BDE8F08F14F1160F2C60F8D0BC
:103C90001978A142F5DD02FB08B0C7F89840C7F8D3
:103CA0009840D7F89C4000F10801007B64F30400C1
:103CB0000871D7F8A0000C79400860F347140C7124
:103CC000D7F89C1021F01F016960D7F8A01021F0EF
:103CD0001F01296108F1010814350C36B3E700BF54
:103CE000C41B002000ED00E08E310020F0B54149FA
:103CF000414CD1F890302568C3F307239D4287B02B
:103D000075D80020FFF782FF3C4BC1F8C0308542D8
:103D100016D13B4C01A82570FFF70EF90025064689
:103D2000384FAE4213D1002023783249D1F8902089
:103D3000C2F30722934254DBFFF75CFF00202FE021
:103D4000616801EB0011FFF76DFE0130DFE70199BB
:103D5000280101EB0513DA683A40B2F5001F21D0C3
:103D6000B2F5800F2BD0B2F5801F38D15A689B680E
:103D70000958013B22F01F0003440120844623F030
:103D80001F0340EA4C10CDE902218DF8100002A972
:103D900020780593FFF760FE00281DDA6FF015000C
:103DA00007B0F0BD5A689B680958013B22F01F001C
:103DB00003444FF0020C012023F01F03E1E75A688F
:103DC0009B680958013B22F01F0003444FF0000C90
:103DD000062023F01F03D4E7237801332370013535
:103DE0009FE7C1F89830C1F8A00001339EE74FF07B
:103DF000FF30D5E700ED00E0A4980100AAFF4400E1
:103E00008E3100200000F0FFF0B587B007460E4667
:103E100014460021102268461D4615F042F8022380
:103E20008DF80230054B2A4621466846CDE90476D6
:103E300001930FF065FE07B0F0BD00BFDD53010038
:103E400008B502480FF010FEFEE700BF92AB01007C
:103E500008B5024B1B689847002008BDD81B0020FE
:103E6000034B044A1860937843F002039370704741
:103E7000D81B0020FC02002008B50649064821F0A6
:103E80000701C1F1005202F5E02210F094FA00207F
:103E900008BD00BFD3830020DC1B002070B5416942
:103EA0000446867A0A4D59B1437ADB0706D42C239F
:103EB00003FB06535B6A1B689B689847002363619A
:103EC0002C20214606FB0050BDE8704014F0A1B83C
:103ED000940600202C22024B02FB0030704700BFEA
:103EE000940600202C21827A054B01FB02339A6A4A
:103EF0001B7F801A1B3323F00303B0FBF3F07047E2
:103F00009406002038B52C24827A064B04FB023339
:103F10005B6AD3E901240C601568FFF7E3FF04FB3B
:103F2000005038BD940600202DE9F04385B00546C9
:103F3000684690461C46039114F0DDFADDE90067FF
:103F4000EFF31189202383F31288BFF36F8F6B8BFC
:103F5000002B41D02A8B9A4225D9002200232846E3
:103F600009F0DAFF0446F0B189F31188BFF36F8FCF
:103F7000039B002B41D032463B46684614F0DFFAE3
:103F80002C21A27A254B204601FB02335B6A03A950
:103F90001B681D68DDE90023A847606170BB2046EF
:103FA000FFF77CFF24E0698B4B1E6B8389F311883C
:103FB000BFF36F8F2B7F2A8BAC6A1B3323F0030375
:103FC000521A02FB0344154B154AEB1A9B1053433C
:103FD000A3722B7FE372CBE789F31188BFF36F8F56
:103FE00023464246284609F097FF04460028BFD1E1
:103FF0000024204605B0BDE8F0836361012300255D
:104000002381039B29466382E27A656004F11800EC
:1040100014F047FF63692582E360EAE79406002015
:10402000A38B2EBA70B52C250B4C00B970BD037A4A
:104030004668013BDBB20372002BF7D1C3604360DB
:10404000837A05FB03431B6A13B198473046ECE7BC
:10405000FFF724FFFAE700BF94060020054B03EBAF
:104060008000D0F8003223F0E04343F04053C0F822
:104070000032704700258450052370B5144D154E4D
:104080002C780134B4FBF3F303EB8303E41A12F04E
:1040900029FF114A137823B156F82430C01A072893
:1040A00014D94FF05023D3F8141141B10021C3F8B3
:1040B0001411D3F814312C700CB9012313702C781F
:1040C00012F010FF46F82400012070BD0020FCE72C
:1040D00090310020E81B00208F310020012208B51C
:1040E0000B4B0C49C3F8002502230020C1F8D03641
:1040F000FFF7B4FF1046FFF7B1FFC1F80427C1F87E
:104100000429C1F8002BBDE8084000F0A5B800BFA5
:10411000001000500040005007B50DF1070007F0F7
:10412000F5FD0F4B984218D14FF480620D4B0E49AC
:10413000C3F8B8254FF40062C3F83C259DF807008A
:1041400012F02AFF9DF80700084912F020FF012015
:104150009DF80730984007F0D3FD03B05DF804FBED
:104160000000AD0B00A002502CA0025028A102506C
:1041700048B1054B054A1B68B3FBF2F35843044BA7
:1041800043F00103184770471804002040420F0015
:1041900070960100002170B5104C114D114E0007B2
:1041A00014F8013B03F01F025B090FD0012B0FD164
:1041B000334603EB8203D3F80022013122F0E042C0
:1041C00002430429C3F80022EAD170BD2B46F0E770
:1041D0000023803253F82230FFDE00BFB6AB01006F
:1041E00000258450002884502DE9F0410646012026
:1041F0000D46FFF7CFFF4FF47F03D3F83021D3F8FC
:104200003431072A20D1023B032B02D8114AD35C58
:10421000D3B14FF050244FF0010800270520C4F817
:104220001886C4F8147612F0B0FE4046C4F814861E
:1042300012F0ABFEC4F81476C4F8187630462B465C
:10424000BDE8F041002118474FF050230022C3F889
:104250001426F3E7B2AB01000149024810F032BC6A
:10426000DC980100FC1B00201FB578B100230193EE
:104270000393012369460848029310F036FC029B21
:104280009B0700D1039B05B05DF804FB024805B015
:104290005DF804EB10F080BCFC1B002008B504485E
:1042A00013F04BFD00280CBF6FF01200002008BD7A
:1042B000409101000E4B402928BF402170B51D469A
:1042C0000C4C4618B04203F1020304D1002305F858
:1042D0001130074870BD02781209A25C03F8022C65
:1042E00010F8012B02F00F02A25C03F8012CE9E7A1
:1042F000AF31002019AC010030B503788BB0044613
:1043000007AD032B21D8DFE803F0021A1C1E124967
:104310002846FCF7A1FC059563781E210493A37839
:104320000E4A0393E3780E4802932379019363794D
:104330000093A3790FF0B8FB09480BB030BD0949D1
:10434000E6E70949E4E70949E2E70A212846084A7D
:104350000FF0AAFBDFE700BFD4AB0100F6AB010012
:1043600091310020DBAB0100E2AB0100ECAB0100BE
:10437000C4BD010030B50024094D0A4B85B0284664
:104380000293039413F01DFF02AB284600934FF4F1
:10439000E1620A23044909F0C9FF204605B030BD97
:1043A000B81000202AAC0100383F00200146014827
:1043B0000AF038B8B8100020037830B5012B13D0BC
:1043C000022B27D07BB90A46184B03F1100453F88F
:1043D000045BA34242F8045BF9D11B781370438855
:1043E0004B731B0A8B7330BD0A46104B03F110044C
:1043F00053F8045BA34242F8045BF9D11B781370B5
:104400004368C3F307224B731B0CCB731B0A8A73DD
:104410000B74E8E700F1100350F8042B984241F8C0
:10442000042BF9D103780B70DDE700BF33AC01003A
:1044300010B504460AF068FA044B1B680BB120461D
:104440009847BDE810400AF073BA00BF181C00205E
:10445000022838B5054607D10E4810F0D0FF0446B3
:1044600098B90024204638BD0B4810F0C8FF044618
:104470000028F6D0681EC0B21F2808D8074B195C68
:1044800004F10C0011F02AF8ECE70120F6E7002116
:10449000F6E700BF440700209406002044AC01006A
:1044A0000F2810B50CD80D280CD90A4810F0A7FF1A
:1044B000044618B104210C3011F010F8204610BD4C
:1044C0001328F2D009B10448F0E70220BDE81040FB
:1044D000FFF7BEBFC807002018070020C3680221ED
:1044E0001B78024A024811F03AB900BF73AC0100D0
:1044F0005495010070B5C6683378B6F8014083B9A9
:104500000F21204602F052FDF378054650B90A4AC1
:10451000118831B96FEA04506FEA10501080074AD1
:10452000137070BD4372012102F05EFC2846BDE8A5
:10453000704002F033BC00BF7431002030320020E4
:1045400070B5C3681D78BDB9B3F801600F2130465E
:1045500002F02CFD044638B93346BDE87040012115
:10456000064A074811F0FBB8294602F03DFC2046F8
:10457000BDE8704002F012BC70BD00BF9BAC0100F2
:104580005495010010B5C3680121B3F801402046DD
:1045900002F00CFD38B92346BDE810400121044A61
:1045A000044811F0DCB8BDE8104002F0F7BB00BFD2
:1045B000C1AC010054950100012110B50C3010F080
:1045C000AEFFBDE8104003780121024A024811F015
:1045D000C6B800BFE5AC010054950100014610B516
:1045E000084810F010FF0849084813F0BFFD031EEB
:1045F00006DABDE810400121054A064811F0AFB8BF
:1046000010BD00BF4C0100201C03002058110020E9
:1046100007AD01005495010010B5084C0146062273
:1046200094F86F0002F09CFF38B994F86F000522EF
:10463000BDE81040024902F093BF10BD0000002009
:10464000BAAB01000121024A024811F086B800BF4E
:1046500024AD0100549501000B46B0B50D8A00AFA2
:1046600004462946D868FFF725FE8AB06A46094BFA
:10467000C2E90750C2E9053440F202439384064B75
:104680004FF43251054842F8103F11F075F8BD461D
:10469000B0BD00BF3EAD0100050000015495010012
:1046A00070B5C5680121B5F80160304602F07EFCA6
:1046B000044638B93346BDE8704001210B4A0C4826
:1046C00011F04DB82B783BB9D5F80330C0F89530D0
:1046D000D5F80730C0F89930201D4FF4803111F023
:1046E00040F82046BDE8704002F058BBC1AC010064
:1046F00054950100B0B53C28044600AF1AD101F032
:1047000093FE6FF08001103011F039F80020FFF7B0
:1047100083FF054630B90121114A124811F01DF8F6
:10472000BD46B0BD4472002102F05EFB284602F097
:1047300035FBF5E76D468AB06A460B4B4FF41251D4
:10474000C2E90530094B0748D36140F201331384B5
:10475000074B42F8103F11F00FF8AD46E0E700BFFD
:1047600060AD01005495010081AD010004CA010053
:10477000040000012DE9F74F0023804689461746C3
:10478000DFF804A1DAE8EF4FCAE8E23F002AF9D1E6
:10479000264644B9434601213C4A3D4803B0BDE8A2
:1047A000F04F10F0DCBF2046FFF79CFB4FF00C0BE6
:1047B000384D0BFB0050438843451BD02046FFF784
:1047C00091FB0BFB0050438801210093324A434682
:1047D0002F4810F0D3FCDAE8EF3FCAE8E26F002A76
:1047E000F9D1002B4DD01E46304603B0BDE8F04F46
:1047F000FFF718BCA74208D0204610F0FBFD3A8A0C
:10480000F96804F10C0010F060FE2046FFF76AFB27
:104810000C2707FB00504368ABB1B9F1000F12D170
:104820002046FFF75FFB012107FB00504268D2E9F9
:104830000003127A03F01F07B9405B09DAB100EBFD
:10484000830010F08EFF2046FFF74CFB0C2707FB80
:1048500000508368002BC7D02046FFF743FB784306
:1048600005F800902046FFF73DFB07FB0055A868C0
:1048700009F084FBB8E7C94300EB830010F07FFF29
:10488000E1E703B0BDE8F08F480100209DAD0100D5
:10489000549501001C1C0020C5AD010037B504462D
:1048A000084602EBC3039A4202D16FF05E0010E0AB
:1048B000114611F8085BA54211D1038A517899423B
:1048C00009D908480121084A009410F057FC6FF0FC
:1048D000150003B030BD536898470020F9E70A4639
:1048E000E1E700BF54950100F8AD010073B5404801
:1048F00010F09EFD0446002877D000F10C052846F4
:1049000010F015FE0228034603D0042848D0394A87
:1049100003E0238A032B05D8374A0121374810F0DA
:104920001EFF13E00421284610F0F9FDFF23428802
:1049300006882376238AC6F30B009A42608309D047
:10494000012100922D482E4A10F018FC2046FFF756
:1049500069FB12E00F2102F029FB054610B9638BB9
:10496000284ADAE702F062FB21462076320B28461D
:1049700002F0F2F8284602F011FA234BD3F84C313A
:10498000002B32D02149224813F0F0FB031E2CDA11
:104990000121204A194802B0BDE8704010F0DFBE86
:1049A000238A012B01D81C4AB7E72846022110F0C0
:1049B000B6FD0546007810F0BEFE10F002060DD1DF
:1049C00040F60C43154A164916480FF0B3FD86F31E
:1049D0001188BFF36F8F0323184602DF042321469B
:1049E000114A287810F0D3FEB0E702B070BD00BFC6
:1049F0004C0100201CAF01001AAE010054950100CB
:104A00003BAE01005FAE0100000000201C0300204F
:104A10005811002007AD010081AE01009DAE0100DC
:104A2000D1AE0100FFAE01008899010010B501214F
:104A300004460C3010F073FD2146BDE810400623FB
:104A4000014A007810F0A3BEA8990100F8B5012131
:104A5000044600AF0C3010F062FD067800232146BA
:104A60003046104AFFF71AFF5F3018D1258AE068F8
:104A70002946FFF71FFC6C468AB06A460A4BC2E91A
:104A80000750C2E9053640F202439384074B4FF4C6
:104A90003251074842F8103F10F06EFEA546BD4661
:104AA000F8BD00BFD899010030AF0100050000013A
:104AB000549501002DE9F04F83B00123D0F80C800C
:104AC000018A98F8004000AF03EB84038B425ED963
:104AD0006D468AB06A46C2E9073105232E484FF475
:104AE0002151C2E905042D4842F8103F10F044FE60
:104AF000AD460C37BD46BDE8F08F4B460121284A34
:104B0000264810F02CFE013598F800309D42F0DA6E
:104B100008EB8503B3F801900F214846B3F8036012
:104B200002F044FA04460028E7D000F1C00936B18B
:104B3000636943B95A460121184810F00EFE204619
:104B400002F02CF9DFE7A1691A688B422046626106
:104B500008BFA2617B6001F0A1FF09F00FFA7B683A
:104B6000C3F800A0226A7AB9C4E90733D9E8EF3F55
:104B7000013BC9E8E23F002AF8D100212046013E6E
:104B800001F098FFB6B2D2E713602362EEE700258A
:104B9000DFF810B0AA46B7E762AF010054950100F4
:104BA0008DAF0100A9AF010073B5C5680121B5F84B
:104BB0000160304602F0FAF9044640B9334601215B
:104BC0003A4A3B4802B0BDE8704010F0C8BD2B78AF
:104BD000061D1A2B19D1C378012B4ED14FF48041F9
:104BE000304610F0BEFD42040FD4D4F88830694638
:104BF0000093D4F890302046019302F08DFF2046B8
:104C000002B0BDE8704002F0C9B82B78ABBB40F6EB
:104C10007A41B5F80320A4F8862093B2B5F80520B0
:104C2000A4F88C20B5F80720A4F88E209A1F92B221
:104C30008A4204D902211F4A1D4810F090FDB4F8A1
:104C40008C30B3F5FA7F04D302211B4A184810F0C8
:104C500086FD40F67641B4F88E30A3F10A0292B296
:104C60008A4204D90221154A114810F078FD6FF4E8
:104C70008051304610F083FD14E0D6E8AF3FDB04EE
:104C8000F5D52B78202BF2D194F89430002BEED070
:104C9000013B84F894304FF42032002304F14000AB
:104CA00009F0EAFB204602F045FBA8E7C1AC010091
:104CB00054950100C0AF0100E8AF01000FB0010042
:104CC000054BD3E8AF2F02F00B02D3E8EF1FC3E888
:104CD000E02F0028F9D17047D400002010B5C1E9B9
:104CE00000239DF808300C460B72FFF7FBF80C22EE
:104CF000024B02FB00335C6010BD00BF1C1C002097
:104D0000F8B502460B46104810F079FB0446C0B1D6
:104D100004210C3010F0C8FB2046FFF7E3F80C2705
:104D200000260A4D07FB005046802046FFF7DAF8C0
:104D300007FB005086602046FFF7D4F807FB0055BC
:104D40006E602046F8BD00BF9C0700201C1C0020A0
:104D500070B590B06C4606460A4D0F2E0FCD0FC4AD
:104D60000FCD0FC40FCD0FC495E80F0084E80F00DE
:104D70009DBF10AB03EB860656F8400C024810B0FE
:104D800070BD00BF189601003BB00100034B014607
:104D9000D3F86C0182689268104700BF00000020C1
:104DA0002DE9F84300F10C060446304610F0CFFB25
:104DB000012105463046B4F8108010F0A8FB238A84
:104DC000012B09D80121194A194810F0C8FC2046C6
:104DD000BDE8F843FFF726B93046022110F09FFBEB
:104DE0000746007810F0A7FC10F0010906460DD127
:104DF00041F236030F4A104910480FF09BFB89F32C
:104E00001188BFF36F8F0323184602DF0523214665
:104E10000B4A387810F0BBFCB307D8D56369A4F807
:104E2000108013FA85F5E560BDE8F88381AE0100D6
:104E3000549501009DAE010043B00100FFAE01009A
:104E40006099010038B50C4609F05EFDE268137800
:104E5000022B1CD0042B0AD001210F4A0F4810F05E
:104E60007EFC2046FFF7DEF86FF015040BE050786B
:104E700010F061FCC207054602D52046FFF790FFFF
:104E8000AB0704D4002409F053FD204638BD20466A
:104E9000FFF7A4FBF6E700BF5CB0010054950100EA
:104EA0002DE9F84F042100AF454810F05AFC6D463B
:104EB00088B06A46434B4FF4E6515361424B434836
:104EC00093614FF400739383414B424C42F8103F7F
:104ED00010F052FCAD46E2793F4B404E2046012A8D
:104EE00088BF1E46FFF708FA8AB06A463C4BD0617D
:104EF000C2E905363B4B4FF4235113623A4B33481A
:104F000042F8103F10F038FCA346AD460125374E5D
:104F1000DFF8DC80DFF8B490E3790BF1070B9D42FA
:104F200038DB94F870506E462846FFF711FF8CB0BE
:104F30006A46B4F87210B4F87630C2E907514FF4FB
:104F400000755362DFF8ACC02B4BC2E905C0158574
:104F50004FF4535142F8103F1C4810F00DFCB54679
:104F600094F871603046FFF7F3FE8AB06A46B4F8F1
:104F700074302249C2E90763214BC2E905109584C8
:104F80004FF43351114842F8103F10F0F5FBBD4685
:104F9000BDE8F88F5846FFF7AFF9EA468AB06A468F
:104FA00040F20133C2E90565D06113844FF4135117
:104FB000484642F8108F10F0DFFB0135D546ABE7CD
:104FC000D400002074B0010086B0010054950100A7
:104FD000030000010000002070B0010004CA0100BD
:104FE0008AB00100000201030400000299B0010030
:104FF00004000001AAB0010006000001E8B00100B1
:105000000500000100487047C5A20100014809F0F1
:1050100087B900BF0C03002070B505460C4659B98E
:105020004FF0FF304FF0FF31FFF76AFE044618B92A
:105030006FF06805284670BD2046FEF753FF0C222E
:10504000184BA61802FB003330465D8010F07FFA43
:1050500003280BD90321304610F048FA0580238A33
:105060000121033B8370304610F048FA40F6354387
:105070009D420FD12046FFF789FE05460028D9D072
:1050800003460121084A094810F069FB2046FEF753
:10509000C9FFCFE72146064812F0B0FF0025FFF711
:1050A000B5FFC7E71C1C00200FB10100549501009B
:1050B000540100202DE9F0410446458B077E807A9B
:1050C000FEF708FF6169064649B1637ADA0704D43E
:1050D000436A20461B689B6898470023636121460A
:1050E000304612F096FF254B93F88A309B0642D546
:1050F000384602F00BFB044638B93B46BDE8F041A8
:1051000002211F4A1F4810F02ABB837A073B012B5C
:1051100009D91C4802211C4A10F01FFB2046BDE89B
:10512000F04101F03BBE01F039FE4FF0FF304FF08F
:10513000FF31FFF7E5FD044630B9BDE8F04101213C
:10514000124A104810F009BB00F10C070121384643
:1051500010F0B5F9012604210670384610F0AFF9B9
:10516000002305808670C3702146BDE8F04140F6FB
:105170003540FFF751BFBDE8F08100BF00000020BF
:105180007CB1010054950100A5B10100D1B101002D
:1051900073B5C368D9789A781E8842EA0122ADF8BF
:1051A000002059791A79B4B242EA0122ADF80220FE
:1051B000D9799A79204642EA0122ADF804201A7A78
:1051C0005B7A012142EA0323ADF8063001F0EEFEDE
:1051D000054658B901211D4823461D4A10F0BFFA63
:1051E0000221204610F006FB02B070BD694602F0B5
:1051F000E7F838B91E21204610F0FCFA284601F0E5
:10520000CDFDF1E74FF0FF304FF0FF31FFF778FDB4
:1052100004460028F2D00E210C3010F050F9002383
:105220000680C0F80A30BDF8003021464380BDF842
:1052300002308380BDF80430C380BDF8063003819E
:1052400042F22000FFF7E8FED8E700BF54950100C6
:10525000C1AC010038B502460B462B4DD5F85411B0
:1052600009B9002038BD05F5987008F0C1FE002886
:10527000F7D10022002305F5AA7008F04DFE044680
:1052800068B940F61B43214A214922480FF052F9E0
:1052900084F31188BFF36F8F0323184602DFD5F81C
:1052A00048315BB101211C4A1C4810F056FAD5F870
:1052B0004801FEF7B7FE0023C5F84831204610F03C
:1052C000CDF8C5F848012046FFF760FD0346C8B198
:1052D0000121134A114810F042FA124808F04EFE1C
:1052E0002046FEF7FFFD0C220F4B02FB00335888CF
:1052F00018B122461F21FFF73DFA2046FEF792FE25
:10530000FFF784FE0120ADE7000000209DAE010004
:1053100067AC0100FFAE0100F4B10100549501003B
:105320000FB10100300100201C1C00202DE9F04FBE
:1053300087B0064690460C4600AF71B94FF0FF307B
:105340004FF0FF31FFF7DCFC044668B96FF06805E9
:1053500028461C37BD46BDE8F08F887AFEF7BAFDB7
:10536000524B834240F09C8001220021384612F0CB
:105370005EFE2046FEF7B6FD0C23DFF834B103FBDA
:1053800000B08760204610F069F801463046FFF70C
:1053900043FE054618B12046FEF744FED8E713F059
:1053A00025FE444B1A58444B9A421ED1434812F0F2
:1053B0003AFE002182464FF4A020FFF74BFF8146C2
:1053C00088B94FF4F9733E4A3E493F480FF0B2F8AE
:1053D00031463E480FF0AEF889F31188BFF36F8F66
:1053E0000323184602DF5445E0D14FF4A0220023E6
:1053F000384608F0FDFD814698B14FF4FC73304A01
:10540000334931480FF096F84A46314631480FF09B
:1054100091F8002383F31188BFF36F8F032318469D
:1054200002DF2046FEF75EFD0C2358431BF8009078
:10543000B9F1000F2DD06D468AB06A46264BC2F8EE
:105440001C90C2E90536254B4FF43251136240F2ED
:1054500002439384224B234842F8103F10F08CF90A
:105460002046AD46A9F10909FEF7DCFDB9F1090FA7
:105470000CD8DFE809F0180B0B08050B0B0B0B150C
:105480006FF00B0564E76FF00C0561E76FF0040542
:105490005EE7B8F1000F3FF47EAFC8F8004057E771
:1054A0006FF0150554E76FF06E0551E79C0700207B
:1054B0001C1C002008000000D8140020540100200B
:1054C0009DAE01000FB20100FFAE010017B2010056
:1054D00050B1010037B201007CB2010004CA0100E2
:1054E00005000001549501000022F0B585B0114679
:1054F00040F6034002AFFFF719FF0446002840F0D2
:10550000A480FFF7DDFB214641F203003A1DFFF7BF
:105510000DFF0446002840F098807A68B84DD168A5
:1055200005F17803D1F80100D1F8051003C3104646
:10553000FEF778FD214641F201003A1DFFF7F6FE25
:105540000446002840F081807868C3685A7885F85E
:1055500070205A88A5F872201A7985F87120B3F85E
:105560000720A5F87420B3F80530A5F87630FEF7CB
:1055700059FD214641F202003A1DFFF7D7FE0446CD
:10558000002862D1D7F804C005F18006DCF80C20B1
:10559000531C4132344618685968083303C4934297
:1055A0002646F7D16046FEF73DFD01F06FF904464F
:1055B00000284AD195F88A309E0610D40221914ADB
:1055C000914810F0CAF895F87C30580641D4012172
:1055D0008E4A8D4810F0C1F86FF0120435E04FF09C
:1055E000FF304FF0FF31FFF78BFB0646002800F03D
:1055F000F98007210C300FF062FF1B2303700A2390
:10560000C0F802408471447004712246C370314670
:1056100040F63340FFF78AFE0446B0B94FF0FF3042
:105620004FF0FF31FFF76CFB0646002800F0DA80F0
:1056300001210C300FF052FF2246314640F6314036
:10564000FFF774FE04460028BDD020460C37BD4647
:10565000F0BD002142F203003A1DFFF767FE044649
:105660000028F2D17A686A4BD168D1F80100D1F8EC
:10567000051003C31046FEF7D5FC214642F2020096
:105680003A1DFFF753FE04460028DED17E68F46819
:10569000B4F801309AB292B1E27882B1A5F804313F
:1056A000E378032B06D00322022100925648594A80
:1056B0000FF064FDE2785848114612F0B8FC30460D
:1056C000FEF7B0FC1F2395F87C60A5F8203116F09A
:1056D000200618D14FF0FF304FF0FF31FFF710FBDD
:1056E000044600287ED002210C300FF0E8FE012392
:1056F000214603704670324640F66D40FFF716FEB5
:1057000004460028A1D195F89C30190712D5002134
:1057100042F21C003A1DFFF709FE0446002894D10E
:105720007868C368D3F80120D3F80530C5E9382379
:10573000FEF778FC4FF0FF304FF0FF31FFF7E0FA53
:10574000044600284ED008210C300FF0B8FE95F822
:10575000D83095F8D92013F0020F14BF2F230F2350
:1057600012F0090F4FF0000218BF43F400630370FA
:105770001B0A214643708270C270027142718271AD
:10578000C27142F20100FFF7D1FD044600287FF408
:105790005CAF95F87C30B5F804119A0625D4C9B9E8
:1057A00041F205003A1DFFF7C1FD044600287FF4D1
:1057B0004CAFB5F804317C684BB9E368B3F801200D
:1057C000A5F804219A881448114612F030FC2046AE
:1057D000FEF728FC4FF0FF304FF0FF31FFF790FA53
:1057E0000446E8B96FF068042FE70029F2D10121DF
:1057F0000A4A05480FF0B1FF6FF0040425E700BF27
:10580000000000209BB2010054950100C9B20100C4
:10581000D8000020EDB201000801002033B30100E0
:1058200008210C300FF04BFE102303708823002258
:1058300043700226202321468270C6700271427195
:105840008271C37140F60140FFF770FD04460028E5
:105850007FF4FBAE01463A1D4FF60140FFF766FDAF
:1058600098B1504A022150480FF077FF00F0C8FC71
:10587000044600287FF4E9AE01F050FF04460028FA
:105880007FF4E3AEFFF70CFBDFE67B686E46DC6877
:105890008AB0B4F80130032B96BF444A444952F809
:1058A000231002AAD3614FF4007342481384424B81
:1058B000C2E9050142F8103F4FF413513A480FF086
:1058C0005BFFB4F80120B546022AB4F8033049D191
:1058D000052B47D8394A52F823106E468AB002AADF
:1058E000D3614FF4007336481384334BC2E905018A
:1058F00042F8103F4FF413512B480FF03DFFB546CF
:10590000637994F806C0032B98BF2E4AB4F8076059
:10591000D4F809006C468CB094BF52F82310244987
:1059200002AAC2E9073C4FF40073DFF89CE09385BC
:10593000264BC2E905E1C2E909604FF4735142F810
:10594000103F19480FF018FFA5467868FEF76AFB6C
:1059500000214FF602403A1DFFF7E8FC044618B15B
:105960001B4A7FE71249B8E77868C368B3F801308B
:10597000A5F8C130FEF756FB95F8C1305B077FF5FF
:1059800075AF21464FF603403A1DFFF7CFFC08B133
:10599000104A67E77868C3685B7885F8C030FEF71F
:1059A00041FB63E756B30100549501005099010093
:1059B0003BB001007AB301000400000138990100F6
:1059C00093B3010028990100ABB301000700000167
:1059D000D8B3010001B4010010B5FFF785FD034BFA
:1059E0001B6813B1BDE81040184710BDAC1C002067
:1059F00073B52A4D0646D5F86C0112F09EF948B9E8
:105A00000121274A27480FF0A8FE6FF01204204614
:105A100002B070BD6FF0020105F1D4000FF0AFFECF
:105A200001210FF09EFE10EA010434D11E4B1E60CE
:105A30000A4605F5987012F0FAFA05F5AA7012F008
:105A4000D1FA1A4812F0BDFB6FF007034FF49662CB
:105A500017491648009408F069FC1649134812F0DB
:105A60000BFCD5F86C01144983681B689847044601
:105A700030B103460121114A0A480FF070FEC6E713
:105A800026B902B0BDE87040FFF72EBD05F1C40095
:105A900008F046FCBBE76FF07704B8E70000002091
:105AA0002AB4010054950100AC1C002058110020BC
:105AB0004046002042B40100454E00004BB40100B6
:105AC000F7B5144B054693F99B300C46002B1DDAB5
:105AD00014B9204603B0F0BD082C4FF0000142F28B
